:020000040800F2
:10000000002800201D070008B9060008C1060008E6
:10001000C9060008D1060008D90600080000000043
:10002000000000000000000000000000E1060008E1
:10003000ED06000800000000F906000805070008AA
:1000400065070008650700086507000865070008E0
:1000500065070008650700086507000865070008D0
:1000600065070008650700086507000865070008C0
:1000700065070008650700086507000865070008B0
:1000800065070008650700086507000865070008A0
:100090006507000865070008650700086507000890
:1000A0006507000865070008650700086507000880
:1000B00065070008650700080000000065070008E4
:1000C0006507000800000000000000006507000848
:1000D0000000000065070008650700080000000038
:1000E00065070008650700086507000800000000B4
:1000F0000000000000000000000000000000000000
:0C01000000000000000000005FF808F1A3
:10010C0010B5054C237833B9044B13B10448AFF345
:10011C0000800123237010BD0C00002000000000A3
:10012C00741D000808B5034B1BB103490348AFF31A
:10013C00008008BD0000000010000020741D0008A5
:10014C00B0B586B000AF114B3C1D1D460FCD0FC492
:10015C002B681A46228002341B0C237000F0FEFA26
:10016C0000F018F800F008F900F0B2F800F0DAF836
:10017C0000F078F800F048F8391D4FF47A73122229
:10018C00034801F045FC00BFFDE700BF8C1D0008D3
:10019C00D400002080B590B000AF07F118032822DE
:1001AC000021184601F0B4FD3B1D00221A605A6074
:1001BC009A60DA601A610123BB614FF48033FB61F2
:1001CC0000237B6307F11803184600F0E5FE034695
:1001DC00002B01D000F02EF90F237B600123BB60B4
:1001EC000023FB6000233B6100237B613B1D00214E
:1001FC00184601F053F90346002B01D000F01AF910
:10020C0000BF4037BD4680BD80B500AF124B134ACE
:10021C001A60114B124A5A600F4B00229A600E4B17
:10022C000022DA600C4B4FF480421A610A4B002218
:10023C005A61094B00229A61074B0022DA61064B86
:10024C0000221A62044800F063FD0346002B01D023
:10025C0000F0F0F800BF80BD2800002000540040E2
:10026C00A086010080B500AF174B184A1A60164BD8
:10027C004FF482725A60144B00229A60124B002287
:10028C00DA60114B00221A610F4B00225A610E4B9F
:10029C004FF400729A610C4B0022DA610A4B002277
:1002AC001A62094B00225A62074B00229A62064BD3
:1002BC000A22DA62044801F07FFA0346002B01D0CF
:1002CC0000F0B8F800BF80BD7C0000200030014079
:1002DC0080B500AF114B124A1A60104B4FF4E1324B
:1002EC005A600E4B00229A600C4B0022DA600B4BCA
:1002FC0000221A61094B0C225A61084B00229A61A8
:10030C00064B0022DA61054801F0DAFA0346002BAD
:10031C0001D000F08FF800BF80BD00BFD4000020DA
:10032C000038014080B500AF114B124A1A60104BD7
:10033C004FF4E1325A600E4B00229A600C4B0022B3
:10034C00DA600B4B00221A61094B0C225A61084BE4
:10035C0000229A61064B0022DA61054801F000FB8D
:10036C000346002B01D000F065F800BF80BD00BF34
:10037C001C0100200044004080B588B000AF07F19C
:10038C00100300221A605A609A60DA60264B9B694F
:10039C00254A43F020039361234B9B6903F0200310
:1003AC00FB60FB68204B9B691F4A43F0040393617D
:1003BC001D4B9B6903F00403BB60BB681A4B9B6924
:1003CC00194A43F008039361174B9B6903F0080328
:1003DC007B607B6800221021144800F081FC002215
:1003EC002021134800F07CFC10233B6101237B612E
:1003FC000023BB610223FB6107F1100319460B4874
:10040C0000F0F2FA20233B6101237B610023BB61E6
:10041C000223FB6107F110031946054800F0E4FACA
:10042C0000BF2037BD4680BD0010024000080140CF
:10043C00000C014080B400AF72B600BF00BFFDE7F6
:10044C0080B485B000AF154B9B69144A43F001038F
:10045C009361124B9B6903F00103BB60BB680F4BAC
:10046C00DB690E4A43F08053D3610C4BDB6903F01C
:10047C0080537B607B680A4B5B68FB60FB6823F0F6
:10048C00E063FB60FB6843F00073FB60044AFB68AD
:10049C00536000BF1437BD4680BC7047001002404B
:1004AC000000014080B588B000AF786007F1100300
:1004BC0000221A605A609A60DA607B681B68164AE0
:1004CC00934225D1154B9B69144A43F00803936161
:1004DC00124B9B6903F00803FB60FB68C0233B6174
:1004EC0012237B610023BB610323FB6107F1100323
:1004FC0019460B4800F078FA084BDB69074A43F4BD
:10050C000013D361054BDB6903F40013BB60BB68BC
:10051C0000BF2037BD4680BD005400400010024093
:10052C00000C014080B588B000AF786007F1100373
:10053C0000221A605A609A60DA607B681B681B4A5A
:10054C0093422FD11A4B9B69194A43F48053936100
:10055C00174B9B6903F48053FB60FB68144B9B693E
:10056C00134A43F004039361114B9B6903F004039A
:10057C00BB60BB68A0233B6102237B610323FB614F
:10058C0007F1100319460B4800F02EFA40233B618B
:10059C0000237B610023BB6107F11003194605485A
:1005AC0000F022FA00BF2037BD4680BD003001406C
:1005BC00001002400008014080B58AB000AF78609E
:1005CC0007F1180300221A605A609A60DA607B689F
:1005DC001B68324A934232D1314B9B69304A43F407
:1005EC00804393612E4B9B6903F480437B617B6951
:1005FC002B4B9B692A4A43F004039361284B9B695C
:10060C0003F004033B613B694FF40073BB610223AD
:10061C00FB6103237B6207F118031946214800F0A4
:10062C00E3F94FF48063BB610023FB6100233B6261
:10063C0007F1180319461B4800F0D6F92AE07B682D
:10064C001B68194A934225D1154BDB69144A43F4B4
:10065C000033D361124BDB6903F40033FB60FB689E
:10066C000F4B9B690E4A43F0040393610C4B9B693F
:10067C0003F00403BB60BB680423BB611223FB6162
:10068C0001233B6203237B6207F1180319460548DB
:10069C0000F0AAF900BF2837BD4680BD00380140E4
:1006AC0000100240000801400044004080B400AF3C
:1006BC0000BFFDE780B400AF00BFFDE780B400AF22
:1006CC0000BFFDE780B400AF00BFFDE780B400AF12
:1006DC0000BFFDE780B400AF00BFBD4680BC7047D3
:1006EC0080B400AF00BFBD4680BC704780B400AF83
:1006FC0000BFBD4680BC704780B500AF00F074F8F9
:10070C0000BF80BD80B400AF00BFBD4680BC704749
:10071C00FFF7F8FF0B480C490C4A002302E0D458B1
:10072C00C4500433C4188C42F9D3094A094C002331
:10073C0001E013600432A242FBD301F0F1FAFFF79F
:10074C00FFFC7047000000200C000020D41D0008A6
:10075C000C00002068010020FEE7000080B500AF0F
:10076C00084B1B68074A43F010031360032000F08A
:10077C0007F90F2000F008F8FFF762FE0023184677
:10078C0080BD00BF0020024080B582B000AF786011
:10079C00124B1A68124B1B7819464FF47A73B3FB41
:1007AC00F1F3B2FBF3F3184600F011F90346002BFA
:1007BC0001D001230EE07B680F2B0AD80022796848
:1007CC004FF0FF3000F0E7F8064A7B681360002317
:1007DC0000E0012318460837BD4680BD000000200C
:1007EC00080000200400002080B400AF054B1B78EB
:1007FC001A46054B1B681344034A136000BFBD46E1
:10080C0080BC7047080000206401002080B400AF59
:10081C00024B1B681846BD4680BC70476401002023
:10082C0080B485B000AF78607B6803F00703FB6091
:10083C000C4BDB68BB60BA684FF6FF031340BB6020
:10084C00FB681A02BB68134343F0BF6343F40033E5
:10085C00BB60044ABB68D36000BF1437BD4680BC84
:10086C00704700BF00ED00E080B400AF044BDB68C4
:10087C001B0A03F007031846BD4680BC704700BF37
:10088C0000ED00E080B483B000AF03463960FB712B
:10089C0097F90730002B0ADB3B68DAB20C4997F961
:1008AC0007301201D2B20B4483F800230AE03B68F4
:1008BC00DAB20849FB7903F00F03043B1201D2B200
:1008CC000B441A7600BF0C37BD4680BC704700BF86
:1008DC0000E100E000ED00E080B489B000AFF8600A
:1008EC00B9607A60FB6803F00703FB61FB69C3F135
:1008FC000703042B28BF0423BB61FB690433062BBD
:10090C0002D9FB69033B00E000237B614FF0FF320F
:10091C00BB6902FA03F3DA43BB681A407B699A405D
:10092C004FF0FF317B6901FA03F3D9437B680B402D
:10093C00134318462437BD4680BC704780B582B03F
:10094C0000AF78607B68013BB3F1807F01D301235A
:10095C000FE00A4A7B68013B53600F214FF0FF30D8
:10096C00FFF790FF054B00229A60044B07221A6098
:10097C00002318460837BD4680BD00BF10E000E0DC
:10098C0080B582B000AF78607868FFF749FF00BF90
:10099C000837BD4680BD80B586B000AF0346B96050
:1009AC007A60FB7300237B61FFF75EFF78617A68E6
:1009BC00B9687869FFF790FF024697F90F30114636
:1009CC001846FFF75FFF00BF1837BD4680BD80B5E6
:1009DC0082B000AF78607868FFF7B0FF0346184626
:1009EC000837BD4680BD000080B48BB000AF786086
:1009FC00396000237B6200233B6261E101227B6A48
:100A0C0002FA03F3FB613B681B68FA691340BB6194
:100A1C00BA69FB699A4240F050813B685B68974A1F
:100A2C0093425ED0954A934275D8954A934258D0DA
:100A3C00934A93426FD8934A934252D0914A93422D
:100A4C0069D8914A93424CD08F4A934263D88F4ACB
:100A5C00934246D08D4A93425DD8122B2AD8122B42
:100A6C0059D801A252F823F0EF0A0008C90A00086D
:100A7C00DB0A00081D0B0008230B0008230B0008E1
:100A8C00230B0008230B0008230B0008230B000882
:100A9C00230B0008230B0008230B0008230B000872
:100AAC00230B0008230B0008230B0008D10A0008B5
:100ABC00E50A0008764A934213D02CE03B68DB68C9
:100ACC003B6229E03B68DB6804333B6224E03B6813
:100ADC00DB6808333B621FE03B68DB680C333B622E
:100AEC001AE03B689B68002B02D104233B6213E0A5
:100AFC003B689B68012B05D108233B627B68FA6934
:100B0C001A6109E008233B627B68FA695A6103E0C9
:100B1C0000233B6200E000BFBB69FF2B01D87B6860
:100B2C0001E07B6804337B61BB69FF2B02D87B6AD5
:100B3C009B0002E07B6A083B9B003B617B691A6867
:100B4C000F213B6901FA03F3DB431A40396A3B6915
:100B5C0001FA03F31A437B691A603B685B6803F084
:100B6C008053002B00F0A9804A4B9B69494A43F003
:100B7C0001039361474B9B6903F00103BB60BB68A6
:100B8C00454A7B6A9B08023352F82330FB607B6A30
:100B9C0003F003039B000F2202FA03F3DB43FA6812
:100BAC001340FB607B683D4A93420DD07B683C4A06
:100BBC00934207D07B683B4A934201D1022304E065
:100BCC00032302E0012300E000237A6A02F003020F
:100BDC0092009340FA681343FB602F497B6A9B0891
:100BEC000233FA6841F823203B685B6803F48013F6
:100BFC00002B06D02C4B9A682B49BB6913438B6096
:100C0C0006E0294B9A68BB69DB43274913408B608C
:100C1C003B685B6803F40013002B06D0224BDA68A8
:100C2C002149BB691343CB6006E01F4BDA68BB69F3
:100C3C00DB431D491340CB603B685B6803F4003316
:100C4C00002B06D0184B5A681749BB6913434B60ED
:100C5C0006E0154B5A68BB69DB43134913404B60E4
:100C6C003B685B6803F48033002B1FD00E4B1A6873
:100C7C000D49BB6913430B601FE000BF000032102D
:100C8C000000311000002210000021100000121092
:100C9C00000011100010024000000140000801404B
:100CAC00000C014000100140000401400B4B1A687D
:100CBC00BB69DB43094913400B607B6A01337B62E0
:100CCC003B681A687B6A22FA03F3002B7FF496AE1A
:100CDC0000BF00BF2C37BD4680BC704700040140EC
:100CEC0080B483B000AF78600B467B8013467B707A
:100CFC007B78002B03D07A887B681A6103E07B88B1
:100D0C001A047B681A6100BF0C37BD4680BC704763
:100D1C0080B584B000AF78607B68002B01D10123D3
:100D2C002BE17B6893F83D30DBB2002B06D17B685E
:100D3C00002283F83C207868FFF7B4FB7B68242200
:100D4C0083F83D207B681B681A687B681B6822F05F
:100D5C0001021A607B681B681A687B681B6842F486
:100D6C0000421A607B681B681A687B681B6822F457
:100D7C0000421A6000F0DAFCF8607B685B68814A1C
:100D8C00934207D8FB68804A934294BF0123002307
:100D9C00DBB206E0FB687D4A934294BF012300233B
:100DAC00DBB2002B01D00123E7E0FB68784AA2FB01
:100DBC0003239B0CBB607B681B685B6823F03F01C3
:100DCC007B681B68BA680A435A607B681B681B6A9D
:100DDC0023F03F017B685B686A4A934202D8BB6888
:100DEC00013309E0BB684FF4967202FB03F3694AC6
:100DFC00A2FB03239B0901337A6812680B4313622D
:100E0C007B681B68DB6923F44F4222F0FF027B688E
:100E1C005B685C498B4219D8FB68591E7B685B6820
:100E2C005B00B1FBF3F3591C40F6FC730B40002B39
:100E3C000AD0FB68591E7B685B685B00B1FBF3F35F
:100E4C000133C3F30B0351E004234FE07B689B6831
:100E5C00002B11D1FB68581E7B6859680B465B0050
:100E6C000B44B0FBF3F30133C3F30B03002B0CBFA8
:100E7C0001230023DBB212E0FB68581E7B68596823
:100E8C000B469B000B4499000B44B0FBF3F301336E
:100E9C00C3F30B03002B0CBF01230023DBB2002B8D
:100EAC0001D0012322E07B689B68002B0ED1FB68EC
:100EBC00581E7B6859680B465B000B44B0FBF3F380
:100ECC000133C3F30B0343F400430FE0FB68581EDC
:100EDC007B6859680B469B000B4499000B44B0FB94
:100EEC00F3F30133C3F30B0343F44043796809680C
:100EFC001343CB617B681B681B6823F0C0017B68C4
:100F0C00DA697B681B6A1A437B681B680A431A60A0
:100F1C007B681B689B6823F4034323F0FF037A6808
:100F2C0011697A68D26811437A6812680B4393602E
:100F3C007B681B68DB6823F0FF017B685A697B6860
:100F4C009B691A437B681B680A43DA607B681B68E1
:100F5C001A687B681B6842F001021A607B680022E9
:100F6C001A647B68202283F83D207B6800221A6378
:100F7C007B68002283F83E20002318461037BD46BC
:100F8C0080BD00BFA08601007F841E00FF083D00CD
:100F9C0083DE1B43D34D621080B586B000AF786002
:100FAC007B68002B01D1012372E27B681B6803F084
:100FBC000103002B00F08780924B5B6803F00C035D
:100FCC00042B0CD08F4B5B6803F00C03082B12D155
:100FDC008C4B5B6803F48033B3F5803F0BD1894BAA
:100FEC001B6803F40033002B6CD07B685B68002B10
:100FFC0068D101234CE27B685B68B3F5803F06D176
:10100C00804B1B687F4A43F4803313602EE07B686F
:10101C005B68002B0CD17B4B1B687A4A23F4803322
:10102C001360784B1B68774A23F4802313601DE010
:10103C007B685B68B3F5A02F0CD1724B1B68714AAF
:10104C0043F4802313606F4B1B686E4A43F4803368
:10105C0013600BE06B4B1B686A4A23F480331360FC
:10106C00684B1B68674A23F4802313607B685B68BA
:10107C00002B13D0FFF7CAFB386108E0FFF7C6FB63
:10108C0002463B69D31A642B01D9032300E25D4B62
:10109C001B6803F40033002BF0D014E0FFF7B6FB11
:1010AC00386108E0FFF7B2FB02463B69D31A642BA8
:1010BC0001D90323ECE1534B1B6803F40033002BE1
:1010CC00F0D100E000BF7B681B6803F00203002B2B
:1010DC0063D04C4B5B6803F00C03002B0BD0494BDB
:1010EC005B6803F00C03082B1CD1464B5B6803F4C4
:1010FC008033002B16D1434B1B6803F00203002BEB
:10110C0005D07B681B69012B01D00123C0E13D4B4D
:10111C001B6823F0F8027B685B69DB0039491343D9
:10112C000B603AE07B681B69002B20D0364B012208
:10113C001A60FFF76BFB386108E0FFF767FB0246AC
:10114C003B69D31A022B01D90323A1E12D4B1B6858
:10115C0003F00203002BF0D02A4B1B6823F0F8029B
:10116C007B685B69DB00274913430B6015E0264B5A
:10117C0000221A60FFF74AFB386108E0FFF746FBD4
:10118C0002463B69D31A022B01D9032380E11D4B84
:10119C001B6803F00203002BF0D17B681B6803F083
:1011AC000803002B3AD07B689B69002B19D0174B96
:1011BC0001221A60FFF72AFB386108E0FFF726FBD3
:1011CC0002463B69D31A022B01D9032360E10D4B74
:1011DC005B6A03F00203002BF0D0012000F0CEFA82
:1011EC001CE00A4B00221A60FFF710FB38610FE07D
:1011FC00FFF70CFB02463B69D31A022B08D90323D9
:10120C0046E100BF0010024000004242800442420E
:10121C00924B5B6A03F00203002BE9D17B681B68DD
:10122C0003F00403002B00F0A6800023FB758B4B0E
:10123C00DB6903F08053002B0DD1884BDB69874AA7
:10124C0043F08053D361854BDB6903F08053BB6063
:10125C00BB680123FB75824B1B6803F48073002B66
:10126C0018D17F4B1B687E4A43F480731360FFF7E1
:10127C00CDFA386108E0FFF7C9FA02463B69D31A88
:10128C00642B01D9032303E1754B1B6803F48073B2
:10129C00002BF0D07B68DB68012B06D16F4B1B6AEF
:1012AC006E4A43F0010313622DE07B68DB68002B70
:1012BC000CD16A4B1B6A694A23F001031362674B1A
:1012CC001B6A664A23F0040313621CE07B68DB682C
:1012DC00052B0CD1614B1B6A604A43F0040313626B
:1012EC005E4B1B6A5D4A43F0010313620BE05B4BE0
:1012FC001B6A5A4A23F001031362584B1B6A574A64
:10130C0023F0040313627B68DB68002B15D0FFF716
:10131C007DFA38610AE0FFF779FA02463B69D31A85
:10132C0041F28832934201D90323B1E04B4B1B6A43
:10133C0003F00203002BEED014E0FFF767FA3861DC
:10134C000AE0FFF763FA02463B69D31A41F288328E
:10135C00934201D903239BE0404B1B6A03F0020329
:10136C00002BEED1FB7D012B05D13C4BDB693B4ABD
:10137C0023F08053D3617B68DB69002B00F08780FE
:10138C00364B5B6803F00C03082B61D07B68DB6980
:10139C00022B46D1334B00221A60FFF737FA386123
:1013AC0008E0FFF733FA02463B69D31A022B01D946
:1013BC0003236DE0294B1B6803F00073002BF0D165
:1013CC007B681B6AB3F5803F08D1244B5B6823F420
:1013DC0000327B689B68214913434B601F4B5B6851
:1013EC0023F474127B68196A7B685B6A0B431B4994
:1013FC0013434B601B4B01221A60FFF707FA38614D
:10140C0008E0FFF703FA02463B69D31A022B01D915
:10141C0003233DE0114B1B6803F00073002BF0D04D
:10142C0035E0104B00221A60FFF7F0F9386108E044
:10143C00FFF7ECF902463B69D31A022B01D90323BF
:10144C0026E0064B1B6803F00073002BF0D11EE066
:10145C007B68DB69012B07D1012319E000100240E6
:10146C0000700040600042420B4B5B68FB60FB6805
:10147C0003F480327B681B6A9A4206D1FB6803F442
:10148C0070127B685B6A9A4201D0012300E0002352
:10149C0018461837BD4680BD0010024080B584B098
:1014AC0000AF786039607B68002B01D10123D0E05C
:1014BC006A4B1B6803F007033A689A4210D9674BD2
:1014CC001B6823F0070265493B6813430B60634BB1
:1014DC001B6803F007033A689A4201D00123B8E075
:1014EC007B681B6803F00203002B20D07B681B6811
:1014FC0003F00403002B05D0594B5B68584A43F4A6
:10150C00E06353607B681B6803F00803002B05D075
:10151C00534B5B68524A43F460535360504B5B68C7
:10152C0023F0F0027B689B684D4913434B607B684A
:10153C001B6803F00103002B40D07B685B68012B18
:10154C0007D1474B1B6803F40033002B15D1012343
:10155C007FE07B685B68022B07D1414B1B6803F073
:10156C000073002B09D1012373E03D4B1B6803F082
:10157C000203002B01D101236BE0394B5B6823F094
:10158C0003027B685B68364913434B60FFF73EF9F7
:10159C00F8600AE0FFF73AF90246FB68D31A41F209
:1015AC008832934201D9032353E02D4B5B6803F03F
:1015BC000C027B685B689B009A42EBD1274B1B6843
:1015CC0003F007033A689A4210D2244B1B6823F0AD
:1015DC00070222493B6813430B60204B1B6803F046
:1015EC0007033A689A4201D0012332E07B681B68FA
:1015FC0003F00403002B08D0194B5B6823F4E06262
:10160C007B68DB68164913434B607B681B6803F0EF
:10161C000803002B09D0124B5B6823F460527B68E3
:10162C001B69DB000E4913434B6000F021F80246A6
:10163C000B4B5B681B0903F00F030A49CB5C22FAC6
:10164C0003F3094A1360094B1B681846FFF79CF813
:10165C00002318461037BD4680BD00BF0020024055
:10166C0000100240A01D0008000000200400002013
:10167C0080B487B000AF0023FB600023BB60002365
:10168C007B6100237B6000233B611E4B5B68FB602E
:10169C00FB6803F00C03042B02D0082B03D027E0CB
:1016AC00194B3B6127E0FB689B0C03F00F03174AB7
:1016BC00D35C7B60FB6803F48033002B10D0114BA0
:1016CC005B685B0C03F00103114AD35CBB607B6865
:1016DC000D4A03FB02F2BB68B2FBF3F37B6104E03F
:1016EC007B680C4A02FB03F37B617B693B6102E084
:1016FC00054B3B6100BF3B6918461C37BD4680BC9F
:10170C00704700BF0010024000127A00B81D00089C
:10171C00C81D000800093D0080B400AF024B1B68D7
:10172C001846BD4680BC70470000002080B500AF55
:10173C00FFF7F2FF0246054B5B681B0A03F0070339
:10174C000349CB5C22FA03F3184680BD001002401B
:10175C00B01D000880B500AFFFF7DEFF0246054B59
:10176C005B68DB0A03F007030349CB5C22FA03F343
:10177C00184680BD00100240B01D000880B485B032
:10178C0000AF78600A4B1B680A4AA2FB03235B0A72
:10179C007A6802FB03F3FB6000BFFB685A1EFA6019
:1017AC00002BF9D100BF00BF1437BD4680BC704779
:1017BC0000000020D34D621080B582B000AF78607D
:1017CC007B68002B01D1012376E07B685B6A002BE0
:1017DC0008D17B685B68B3F5827F09D07B680022F7
:1017EC00DA6105E07B6800221A617B6800225A618D
:1017FC007B6800229A627B6893F85130DBB2002B35
:10180C0006D17B68002283F850207868FEF78AFEA8
:10181C007B68022283F851207B681B681A687B68FE
:10182C001B6822F040021A607B685B6803F48272CA
:10183C007B689B6803F404431A437B68DB6803F4FE
:10184C0000631A437B681B6903F002031A437B682D
:10185C005B6903F001031A437B689B6903F4007313
:10186C001A437B68DB6903F038031A437B681B6AF5
:10187C0003F0800342EA03017B689B6A03F4005285
:10188C007B681B680A431A607B689B691A0C7B682F
:10189C001B6802F004025A607B681B68DA697B687B
:1018AC001B6822F40062DA617B6800225A657B684F
:1018BC00012283F85120002318460837BD4680BD0D
:1018CC0080B582B000AF78607B68002B01D101231A
:1018DC0042E07B6893F84130DBB2002B06D17B6889
:1018EC00002283F840207868FEF766FE7B6824228D
:1018FC0083F841207B681B68DA687B681B6822F4DC
:10190C000052DA60786800F075F97B681B681A6918
:10191C007B681B6822F490421A617B681B685A69C9
:10192C007B681B6822F02A025A617B681B68DA68A4
:10193C007B681B6842F40052DA607B6800225A64B0
:10194C007B68202283F841207B68202283F8422088
:10195C007B6800225A63002318460837BD4680BDB9
:10196C0080B582B000AF78607B68002B01D1012379
:10197C004AE07B6893F84130DBB2002B06D17B68E0
:10198C00002283F840207868FEF716FE7B6824223C
:10199C0083F841207B681B68DA687B681B6822F43B
:1019AC000052DA60786800F025F97B681B681A69C8
:1019BC007B681B6822F490421A617B681B685A6929
:1019CC007B681B6822F022025A617B681B685A698B
:1019DC007B681B6842F008025A617B681B68DA68F6
:1019EC007B681B6842F40052DA607B6800225A6400
:1019FC007B68202283F841207B68202283F84220D8
:101A0C007B6800225A63002318460837BD4680BD08
:101A1C0080B58AB002AFF860B9603B601346FB80BA
:101A2C0000237B61FB6893F84130DBB2202B6DD136
:101A3C00BB68002B02D0FB88002B01D1012366E090
:101A4C00FB6800225A64FB68212283F84120FEF7D0
:101A5C00DDFE7861FB68FA889A84FB68FA88DA8480
:101A6C00FB689B68B3F5805F08D1FB681B69002B92
:101A7C0004D10023FB61BB68BB6103E0BB68FB6165
:101A8C000023BB612AE03B6800937B690022802124
:101A9C00F86800F040F80346002B01D0032336E031
:101AAC00FB69002B0BD1BB691B881A46FB681B68B2
:101ABC00C2F308025A60BB690233BB6107E0FB69E1
:101ACC001A78FB681B685A60FB690133FB61FB6881
:101ADC00DB8C9BB2013B9AB2FB68DA84FB68DB8C33
:101AEC009BB2002BCFD13B6800937B690022402135
:101AFC00F86800F010F80346002B01D0032306E031
:101B0C00FB68202283F84120002300E002231846C2
:101B1C002037BD4680BD80B590B000AFF860B9608D
:101B2C003B601346FB7150E0BB6CB3F1FF3F4CD0F4
:101B3C00BB6C002B07D0FEF769FE02463B68D31A3C
:101B4C00BA6C9A4241D2FB681B680C33BB62BB6A0D
:101B5C0053E8003F7B627B6A23F4D073FB63FB6822
:101B6C001B680C33FA6B7A633B63396B7A6B41E815
:101B7C000023FB62FB6A002BE5D1FB681B68143366
:101B8C007B617B6953E8003F3B613B6923F00103B8
:101B9C00BB63FB681B681433BA6B3A62FB61F9696F
:101BAC003A6A41E80023BB61BB69002BE5D1FB68B5
:101BBC00202283F84120FB68202283F84220FB6816
:101BCC00002283F8402003230FE0FB681B681A688F
:101BDC00BB681340BA689A420CBF01230023DBB2E6
:101BEC001A46FB799A429FD0002318464037BD46CF
:101BFC0080BD000080B584B000AF78607B681B6846
:101C0C001B6923F440517B68DA687B681B680A43C4
:101C1C001A617B689A687B681B691A437B685B69ED
:101C2C001343BB607B681B68DB6823F4B05323F061
:101C3C000C037A681268B9680B43D3607B681B6825
:101C4C005B6923F440717B689A697B681B680A4363
:101C5C005A617B681B682C4A934203D1FFF77AFDCB
:101C6C00F86002E0FFF762FDF860FA6813469B002B
:101C7C0013449A001A447B685B689B00B2FBF3F335
:101C8C00224AA2FB03235B091901FA6813469B0045
:101C9C0013449A001A447B685B689B00B2FBF3F216
:101CAC001A4BA3FB02035B09642000FB03F3D31A5A
:101CBC001B013233154AA2FB03235B0903F0F0032B
:101CCC001944FA6813469B0013449A001A447B6823
:101CDC005B689B00B2FBF3F20C4BA3FB02035B09AA
:101CEC00642000FB03F3D31A1B013233074AA2FB17
:101CFC0003235B0903F00F027B681B680A449A609C
:101D0C0000BF1037BD4680BD003801401F85EB5128
:101D1C0003460244934200D1704703F8011BF9E7D4
:101D2C0070B500260C4D0D4C641BA410A64209D1B5
:101D3C0000F01AF800260A4D0A4C641BA410A642A7
:101D4C0005D170BD55F8043B98470136EEE755F8C0
:101D5C00043B98470136F2E7CC1D0008CC1D000867
:101D6C00CC1D0008D01D0008F8B500BFF8BC08BC9D
:101D7C009E467047F8B500BFF8BC08BC9E4670473D
:101D8C00436F6D6974617320416B6164656D79613A
:101D9C000D0A000000000000000000000102030416
:101DAC0006070809000000000102030402030405F1
:101DBC00060708090A0B0C0D0E0F1010010200008B
:041DCC0031010008D9
:041DD0000D010008F9
:0C1DD4000024F4001000000001000000DA
:040000050800071DCB
:00000001FF
