:020000040800F2
:100000000028002061120008551100085D11000849
:10001000651100086D11000875110008000000004E
:100020000000000000000000000000007D1100083A
:10003000891100080000000095110008A1110008B6
:10004000A9120008A9120008A9120008A9120008A4
:10005000A9120008A9120008A9120008A912000894
:10006000A9120008A9120008A9120008A912000884
:10007000A9120008A9120008A9120008A912000874
:10008000AD110008C1110008A9120008A91200084A
:10009000A9120008A9120008A9120008A912000854
:1000A000A9120008A9120008A9120008A912000844
:1000B000A9120008A912000800000000A9120008F7
:1000C000A91200080000000000000000A9120008AA
:1000D00000000000A9120008D5110008000000006F
:1000E000A9120008A9120008A912000800000000C7
:1000F0000000000000000000000000000000000000
:0C01000000000000000000005FF808F1A3
:10010C0010B5054C237833B9044B13B10448AFF345
:10011C0000800123237010BD5C0000200000000053
:10012C00385F000808B5034B1BB103490348AFF314
:10013C00008008BD0000000060000020385F00084F
:10014C00034613F8012B002AFBD1181A013870470B
:10015C0080F0004002E000BF81F0004142001FBF70
:10016C005FEA410392EA030F7FEA226C7FEA236C79
:10017C006AD04FEA1262D2EB1363C1BFD21841406E
:10018C0048404140B8BF5B42192B88BF704710F004
:10019C00004F40F4000020F07F4018BF404211F0A7
:1001AC00004F41F4000121F07F4118BF494292EA0F
:1001BC00030F3FD0A2F1010241FA03FC10EB0C003B
:1001CC00C3F1200301FA03F100F0004302D54942C8
:1001DC0060EB4000B0F5000F13D3B0F1807F06D375
:1001EC0040084FEA310102F10102FE2A51D2B1F16D
:1001FC00004F40EBC25008BF20F0010040EA030062
:10020C007047490040EB0000013A28BFB0F5000FE1
:10021C00EDD2B0FA80FCACF1080CB2EB0C0200FA97
:10022C000CF0AABF00EBC25052421843BCBFD040E6
:10023C001843704792F0000F81F4000106BF80F460
:10024C0000000132013BB5E74FEA41037FEA226C23
:10025C0018BF7FEA236C21D092EA030F04D092F0EE
:10026C00000F08BF0846704790EA010F1CBF002022
:10027C00704712F07F4F04D1400028BF40F000407F
:10028C00704712F100723CBF00F50000704700F09F
:10029C00004343F0FE4040F4000070477FEA2262C6
:1002AC0016BF08467FEA23630146420206BF5FEA97
:1002BC00412390EA010F40F4800070474FF0000397
:1002CC0004E000BF10F0004348BF40425FEA000C5E
:1002DC0008BF704743F0964301464FF000001CE006
:1002EC0050EA010208BF70474FF000030AE000BF5C
:1002FC0050EA010208BF704711F0004302D540429A
:10030C0061EB41015FEA010C02BF8446014600200B
:10031C0043F0B64308BFA3F18053A3F50003BCFA26
:10032C008CF2083AA3EBC25310DB01FA02FC6344D3
:10033C0000FA02FCC2F12002BCF1004F20FA02F2DA
:10034C0043EB020008BF20F00100704702F12002CD
:10035C0001FA02FCC2F1200250EA4C0021FA02F22E
:10036C0043EB020008BF20EADC7070474FF0FF0C33
:10037C001CEAD0521EBF1CEAD15392EA0C0F93EA2E
:10038C000C0F6FD01A4480EA010C400218BF5FEAD0
:10039C0041211ED04FF0006343EA501043EA511143
:1003AC00A0FB01310CF00040B1F5000F3EBF49003D
:1003BC0041EAD3715B0040EA010062F17F02FD2A41
:1003CC001DD8B3F1004F40EBC25008BF20F0010024
:1003DC00704790F0000F0CF0004C08BF49024CEA3B
:1003EC00502040EA51207F3AC2BFD2F1FF0340EACD
:1003FC00C250704740F400004FF00003013A5DDC3E
:10040C0012F1190FDCBF00F000407047C2F100027E
:10041C00410021FA02F1C2F1200200FA02FC5FEA6B
:10042C00310040F1000053EA4C0308BF20EADC70B5
:10043C00704792F0000F00F0004C02BF400010F427
:10044C00000F013AF9D040EA0C0093F0000F01F0D4
:10045C00004C02BF490011F4000F013BF9D041EAF6
:10046C000C018FE70CEAD15392EA0C0F18BF93EAF8
:10047C000C0F0AD030F0004C18BF31F0004CD8D122
:10048C0080EA010000F00040704790F0000F17BFA9
:10049C0090F0004F084691F0000F91F0004F14D0EF
:1004AC0092EA0C0F01D142020FD193EA0C0F03D147
:1004BC004B0218BF084608D180EA010000F000404A
:1004CC0040F0FE4040F40000704740F0FE4040F425
:1004DC00400070474FF0FF0C1CEAD0521EBF1CEAC4
:1004EC00D15392EA0C0F93EA0C0F69D0A2EB0302E2
:1004FC0080EA010C49024FEA402037D04FF080537C
:10050C0043EA111143EA10130CF000408B4238BF40
:10051C005B0042F17D024FF4000C8B4224BF5B1A4E
:10052C0040EA0C00B3EB510F24BFA3EB510340EA9C
:10053C005C00B3EB910F24BFA3EB910340EA9C004A
:10054C00B3EBD10F24BFA3EBD10340EADC001B01BA
:10055C0018BF5FEA1C1CE0D1FD2A3FF650AF8B425E
:10056C0040EBC25008BF20F0010070470CF0004C6B
:10057C004CEA50207F32C2BFD2F1FF0340EAC25096
:10058C00704740F400004FF00003013A37E792F057
:10059C00000F00F0004C02BF400010F4000F013AB5
:1005AC00F9D040EA0C0093F0000F01F0004C02BFB0
:1005BC00490011F4000F013BF9D041EA0C0195E719
:1005CC000CEAD15392EA0C0F08D142027FF47DAFB2
:1005DC0093EA0C0F7FF470AF084676E793EA0C0FA2
:1005EC0004D14B023FF44CAF08466EE730F0004CA0
:1005FC0018BF31F0004CCAD130F000427FF45CAF30
:10060C0031F000437FF43CAF5FE700BF4FEA40029C
:10061C00B2F1FE4F0FD34FF09E03B3EB12620DD924
:10062C004FEA002343F0004310F0004F23FA02F08E
:10063C0018BF404270474FF00000704712F1610F35
:10064C0001D1420205D110F0004008BF6FF000400C
:10065C0070474FF00000704780B582B000AF7860F3
:10066C00114B124A1A60104A7B6853600E4B0022E1
:10067C009A600D4B0022DA600B4B00221A610A4B78
:10068C000C225A61084B00229A61074B0022DA6156
:10069C00054803F011FE0346002B01D000F0BCFB13
:1006AC0000BF0837BD4680BD6C01002000440040EF
:1006BC0080B582B000AFF023FB714FF41650FFF7FA
:1006CC00CBFFF91D322301220F4803F04DFEF91D1B
:1006DC004FF47A7301220C4803F0C9FE0346002B39
:1006EC0002D04FF0FF330AE04FF4E130FFF7B4FFD4
:1006FC00FB79FF2B02D16FF0010300E001231846B8
:10070C000837BD4680BD00BF6C01002080B500AF2E
:10071C0000221021074801F075FB642304220649CE
:10072C00064803F075F801221021024801F06AFB1B
:10073C0000BF80BD0008014054020020CC00002006
:10074C0080B586B000AF0346FB7100237B6117E0D8
:10075C00FA797B6942FA03F303F00103002B06D00C
:10076C0007F10C027B691344FF221A7005E007F1B4
:10077C000C027B69134400221A707B6901337B6184
:10078C007B69072BE4DD07F10C0164230822034885
:10079C0003F0EAFD00BF1837BD4680BD6C01002098
:1007AC0080B586B000AF0023FB7500233B6107E0EA
:1007BC003A1D3B691344FF221A703B6901333B61BC
:1007CC003B69072BF4DD3B1D08221946164803F044
:1007DC00E1FE08221549144803F04CFF4FF47A70DF
:1007EC0000F0C0FD0023FB6012E0104AFB681344CC
:1007FC001B78FF2B09D10122FB6802FA03F35AB2D2
:10080C0097F9173013435BB2FB75FB680133FB6040
:10081C00FB68072BE9DD064B00221A60FB7D1846AE
:10082C001837BD4680BD00BF6C010020440200207B
:10083C004002002080B500AF002210210A4801F0D0
:10084C00E1FA642301220949094802F0E1FF00237F
:10085C0001220849064803F01EF901221021024822
:10086C0001F0D0FA00BF80BD000801405802002002
:10087C00CC0000205C02002080B483B000AF786014
:10088C00034B01221A6000BF0C37BD4680BC704779
:10089C0040020020B0B5A2B004AF984B07F1600441
:1008AC001D460FCD0FC42B681A46228002341B0C38
:1008BC002370934A07F1540307CA03C31A80914A61
:1008CC0007F14C0392E8030083E80300112387F837
:1008DC0048300123A7F8443000F0E2FC00F02EF978
:1008EC0000F046FA00F01EFA00F0C8F900F062F9C8
:1008FC0000F08EF900F0ECF907F16001642312228C
:10090C00814803F031FD814B74221A707F4B2322F6
:10091C005A707E4B75229A707C4BA422DA707C4BF9
:10092C00FA221A70FFF7F2FEFFF784FFFFF7C0FE02
:10093C000346784A1360CC20FFF702FF4420FFF7F0
:10094C00FFFEFFF7B5FE0346724A1360CC20FFF79B
:10095C00F7FEBE20FFF7F4FEFFF722FF03461A4610
:10096C006D4B1A70FFF71CFF03461A466B4B1A703F
:10097C006A4B1B781B021AB2674B1B781BB21343D2
:10098C001AB2674B1A80664BB3F900301846FFF762
:10099C0099FC03464FF083411846FFF79BFD034635
:1009AC001A46604B1A60FFF7B1FEFFF743FF642352
:1009BC0002930123019307F14803009301230322BF
:1009CC000821594801F07AFB642302930123019317
:1009DC0007F144030093012300220821524801F03F
:1009EC0067FC07F144014FF47A730122464803F087
:1009FC00BBFC4FF47A7000F0B5FCB7F850206423C0
:100A0C0002930123019307F143030093012308216F
:100A1C00454801F04DFCB7F85220642302930123A2
:100A2C00019307F142030093012308213E4801F092
:100A3C003FFC4FF47A7000F095FC97F843301A465F
:100A4C00B7F876301344A7F87630B7F876301B0237
:100A5C00A7F8763097F842301A46B7F87630134438
:100A6C00A7F87630B7F876305B099BB2323BA7F823
:100A7C0076302C4B1B681846FFF7C8FD03461BB29B
:100A8C0038462A4A402104F08DFD3B461846FFF7B4
:100A9C0057FB03469AB239464FF0FF331A4803F01E
:100AAC0063FC234B1B786D3B3846224A402104F0F3
:100ABC0079FD3B461846FFF743FB03469AB239468D
:100ACC004FF0FF33104803F04FFCB7F87630384640
:100ADC00194A402104F066FD3B461846FFF730FBEF
:100AEC0003469AB239464FF0FF33074803F03CFCFB
:100AFC004FF4FA6000F036FC00BF17E78C5F00087B
:100B0C00A05F0008AC5F0008240100205402002004
:100B1C00580200203C0200204C0200204D02002014
:100B2C004E0200205002002078000020545F000884
:100B3C005C020020685F00087C5F000880B590B004
:100B4C0000AF07F1180328220021184604F05EFDBF
:100B5C003B1D00221A605A609A60DA601A61022307
:100B6C00BB610123BB621023FB6200237B6307F193
:100B7C001803184602F0B8F90346002B01D000F018
:100B8C004BF90F237B600023BB600023FB60002329
:100B9C003B6100237B613B1D0021184602F026FCC3
:100BAC000346002B01D000F037F900BF4037BD469B
:100BBC0080BD000080B500AF124B134A1A60114B78
:100BCC00124A5A600F4B00229A600E4B0022DA60D8
:100BDC000C4B4FF480421A610A4B00225A61094BAC
:100BEC0000229A61074B0022DA61064B00221A623E
:100BFC00044801F01FF90346002B01D000F00CF95A
:100C0C0000BF80BD7800002000540040A086010089
:100C1C0080B500AF174B184A1A60164B4FF482720E
:100C2C005A60144B00229A60124B0022DA60114B6E
:100C3C0000221A610F4B00225A610E4B4FF40072C6
:100C4C009A610C4B0022DA610A4B00221A62094BA2
:100C5C0000225A62074B00229A62064B0A22DA6281
:100C6C00044802F051FD0346002B01D000F0D4F8EB
:100C7C0000BF80BDCC0000200030014080B500AF2B
:100C8C00114B124A1A60104B4FF4E1325A600E4B62
:100C9C0000229A600C4B0022DA600B4B00221A6186
:100CAC00094B0C225A61084B00229A61064B002218
:100CBC00DA61054803F0B0FA0346002B01D000F0CE
:100CCC00ABF800BF80BD00BF2401002000380140FC
:100CDC0080B500AF114B124A1A60104B4FF41652EC
:100CEC005A600E4B00229A600C4B0022DA600B4BC0
:100CFC0000221A61094B0C225A61084B00229A619E
:100D0C00064B0022DA61054803F0D6FA0346002BA5
:100D1C0001D000F081F800BF80BD00BF6C01002045
:100D2C000044004080B582B000AF104B5B690F4AA5
:100D3C0043F0010353610D4B5B6903F001037B60CE
:100D4C007B6800220021102000F007FC102000F02E
:100D5C0020FC00220021112000F0FFFB112000F0EC
:100D6C0018FC00BF0837BD4680BD00BF0010024014
:100D7C0080B586B000AF07F1080300221A605A60F4
:100D8C009A60DA60214B9B69204A43F0040393611B
:100D9C001E4B9B6903F004037B607B681B4B9B69B8
:100DAC001A4A43F008039361184B9B6903F008033C
:100DBC003B603B6800224FF48071154801F022F82B
:100DCC0000222021134801F01DF84FF48873BB60FA
:100DDC000123FB6000233B6102237B6107F10803C5
:100DEC0019460B4800F092FE2023BB600123FB60E8
:100DFC0000233B6102237B6107F108031946054878
:100E0C0000F084FE00BF1837BD4680BD00100240C4
:100E1C0000080140000C014080B400AF72B600BF66
:100E2C0000BFFDE780B485B000AF154B9B69144A39
:100E3C0043F001039361124B9B6903F00103BB6008
:100E4C00BB680F4BDB690E4A43F08053D3610C4BEC
:100E5C00DB6903F080537B607B680A4B5B68FB604B
:100E6C00FB6823F0E063FB60FB6843F00073FB60FE
:100E7C00044AFB68536000BF1437BD4680BC704702
:100E8C00001002400000014080B588B000AF7860CF
:100E9C0007F1100300221A605A609A60DA607B68CE
:100EAC001B68164A934225D1154B9B69144A43F093
:100EBC0008039361124B9B6903F00803FB60FB680A
:100ECC00C0233B6112237B610023BB610323FB61C5
:100EDC0007F1100319460B4800F018FE084BDB69AC
:100EEC00074A43F40013D361054BDB6903F4001389
:100EFC00BB60BB6800BF2037BD4680BD00540040BE
:100F0C0000100240000C014080B588B000AF786042
:100F1C0007F1100300221A605A609A60DA607B684D
:100F2C001B681B4A93422FD11A4B9B69194A43F4F5
:100F3C0080539361174B9B6903F48053FB60FB68F0
:100F4C00144B9B69134A43F004039361114B9B6947
:100F5C0003F00403BB60BB68A0233B6102237B61ED
:100F6C000323FB6107F1100319460B4800F0CEFD7B
:100F7C0040233B6100237B610023BB6107F110031D
:100F8C001946054800F0C2FD00BF2037BD4680BDA4
:100F9C0000300140001002400008014080B58AB0CA
:100FAC0000AF786007F1180300221A605A609A604B
:100FBC00DA607B681B685C4A934232D15B4B9B695D
:100FCC005A4A43F480439361584B9B6903F4804322
:100FDC007B617B69554B9B69544A43F004039361D5
:100FEC00524B9B6903F004033B613B694FF4007364
:100FFC00BB610223FB6103237B6207F118031946D3
:10100C004B4800F083FD4FF48063BB610023FB6110
:10101C0000233B6207F118031946454800F076FDA2
:10102C007EE07B681B68434A934279D13F4BDB6976
:10103C003E4A43F40033D3613C4BDB6903F4003389
:10104C00FB60FB68394B9B69384A43F0040393619E
:10105C00364B9B6903F00403BB60BB680423BB6184
:10106C001223FB6101233B6203237B6207F118030C
:10107C0019462F4800F04AFD2F4B304A1A602E4B70
:10108C0010225A602C4B00229A602B4B8022DA6083
:10109C00294B00221A61284B00225A61264B002250
:1010AC009A61254B0022DA61234800F08DFA034641
:1010BC00002B01D0FFF7B0FE7B681F4A9A631E4AD3
:1010CC007B6853621E4B1F4A1A601D4B00225A60EC
:1010DC001B4B00229A601A4B8022DA60184B0022BC
:1010EC001A61174B00225A61154B00229A61144B5E
:1010FC000022DA61124800F067FA0346002B01D097
:10110C00FFF78AFE7B680E4ADA630D4A7B685362EE
:10111C0000220021262000F020FA262000F039FAC7
:10112C0000BF2837BD4680BD00380140001002408A
:10113C000008014000440040B4010020800002403F
:10114C00F80100206C00024080B400AF00BFFDE746
:10115C0080B400AF00BFFDE780B400AF00BFFDE777
:10116C0080B400AF00BFFDE780B400AF00BFFDE767
:10117C0080B400AF00BFBD4680BC704780B400AFE8
:10118C0000BFBD4680BC704780B400AF00BFBD46F9
:10119C0080BC704780B500AF00F0C8F800BF80BDC0
:1011AC0080B500AF024800F07DFB00BF80BD00BFE2
:1011BC00F801002080B500AF024800F073FB00BFBF
:1011CC0080BD00BFB401002080B500AF024803F021
:1011DC0077FA00BF80BD00BF6C01002080B586B0DF
:1011EC0000AF7860144A154BD31A7B617B693B6165
:1011FC00134B1B68002B02D1114B124A1A60104B77
:10120C001A687B6813443A699A4207D204F006FACA
:10121C0003460C221A604FF0FF3309E0084B1B68A1
:10122C00FB60074B1A687B681344054A1360FB6824
:10123C0018461837BD4680BD002800200004000069
:10124C0060020020B003002080B400AF00BFBD4698
:10125C0080BC7047FFF7F8FF0B480C490C4A002381
:10126C0002E0D458C4500433C4188C42F9D3094A50
:10127C00094C002301E013600432A242FBD304F0BA
:10128C00D3F9FFF707FB7047000000205C0000203B
:10129C00246000085C000020B0030020FEE7000082
:1012AC0080B500AF084B1B68074A43F0100313606E
:1012BC00032000F047F90F2000F008F8FFF7B2FD0B
:1012CC000023184680BD00BF0020024080B582B0CC
:1012DC0000AF7860124B1A68124B1B7819464FF40A
:1012EC007A73B3FBF1F3B2FBF3F3184600F05FF93A
:1012FC000346002B01D001230EE07B680F2B0AD88C
:10130C00002279684FF0FF3000F027F9064A7B681D
:10131C001360002300E0012318460837BD4680BD4A
:10132C0000000020080000200400002080B400AF62
:10133C00054B1B781A46054B1B681344034A136074
:10134C0000BFBD4680BC704708000020640200202E
:10135C0080B400AF024B1B681846BD4680BC70477A
:10136C006402002080B584B000AF7860FFF7F0FF16
:10137C00B8607B68FB60FB68B3F1FF3F05D00A4B9C
:10138C001B781A46FB681344FB6000BFFFF7E0FFB5
:10139C000246BB68D31AFA689A42F7D800BF00BF5E
:1013AC001037BD4680BD00BF0800002080B485B05A
:1013BC0000AF78607B6803F00703FB600C4BDB68C5
:1013CC00BB60BA684FF6FF031340BB60FB681A02A0
:1013DC00BB68134343F0BF6343F40033BB60044A60
:1013EC00BB68D36000BF1437BD4680BC704700BFDC
:1013FC0000ED00E080B400AF044BDB681B0A03F087
:10140C0007031846BD4680BC704700BF00ED00E0E6
:10141C0080B483B000AF0346FB7197F90730002B03
:10142C000BDBFB7903F01F02064997F907305B09C8
:10143C00012000FA02F241F8232000BF0C37BD4610
:10144C0080BC704700E100E080B483B000AF03467D
:10145C003960FB7197F90730002B0ADB3B68DAB275
:10146C000C4997F907301201D2B20B4483F80023D0
:10147C000AE03B68DAB20849FB7903F00F03043B3E
:10148C001201D2B20B441A7600BF0C37BD4680BC99
:10149C00704700BF00E100E000ED00E080B489B0CF
:1014AC0000AFF860B9607A60FB6803F00703FB617A
:1014BC00FB69C3F10703042B28BF0423BB61FB6941
:1014CC000433062B02D9FB69033B00E000237B614C
:1014DC004FF0FF32BB6902FA03F3DA43BB681A40E0
:1014EC007B699A404FF0FF317B6901FA03F3D943D2
:1014FC007B680B40134318462437BD4680BC7047AD
:10150C0080B582B000AF78607B68013BB3F1807F1F
:10151C0001D301230FE00A4A7B68013B53600F2182
:10152C004FF0FF30FFF790FF054B00229A60044B01
:10153C0007221A60002318460837BD4680BD00BF3D
:10154C0010E000E080B582B000AF78607868FFF7FB
:10155C002DFF00BF0837BD4680BD80B586B000AFFB
:10156C000346B9607A60FB7300237B61FFF742FF8F
:10157C0078617A68B9687869FFF790FF024697F945
:10158C000F3011461846FFF75FFF00BF1837BD46F6
:10159C0080BD80B582B000AF0346FB7197F9073070
:1015AC001846FFF735FF00BF0837BD4680BD80B534
:1015BC0082B000AF78607868FFF7A2FF0346184648
:1015CC000837BD4680BD000080B485B000AF7860A0
:1015DC000023FB607B68002B01D1012343E07B6877
:1015EC001B681A46224B1344224AA2FB03231B09F5
:1015FC009A007B681A647B681F4ADA637B68022254
:10160C0083F821207B681B681B68FB60FB6823F454
:10161C007F5323F03003FB607B685A687B689B68C0
:10162C001A437B68DB681A437B681B691A437B6827
:10163C005B691A437B689B691A437B68DB691343BC
:10164C00FA681343FB607B681B68FA681A607B6856
:10165C0000229A637B68012283F821207B68002298
:10166C0083F82020002318461437BD4680BC7047F1
:10167C00F8FFFDBFCDCCCCCC0000024080B586B0CD
:10168C0000AFF860B9607A603B600023FB75FB68C3
:10169C0093F82030012B01D102234BE0FB6801228F
:1016AC0083F82020FB6893F82130DBB2012B3AD170
:1016BC00FB68022283F82120FB6800229A63FB68F6
:1016CC001B681A68FB681B6822F001021A603B68F1
:1016DC007A68B968F86800F0EBF9FB68DB6A002BF4
:1016EC0008D0FB681B681A68FB681B6842F00E0286
:1016FC001A600FE0FB681B681A68FB681B6822F015
:10170C0004021A60FB681B681A68FB681B6842F0CD
:10171C000A021A60FB681B681A68FB681B6842F0B7
:10172C0001021A6005E0FB68002283F820200223E6
:10173C00FB75FB7D18461837BD4680BD80B485B05F
:10174C0000AF78600023FB737B6893F82130DBB229
:10175C00022B08D07B6804229A637B68002283F8F2
:10176C002020012320E07B681B681A687B681B68BB
:10177C0022F00E021A607B681B681A687B681B6873
:10178C0022F001021A607B681A6C7B68DB6B01210A
:10179C0001FA02F25A607B68012283F821207B68EF
:1017AC00002283F82020FB7B18461437BD4680BCF2
:1017BC007047000080B584B000AF78600023FB73E5
:1017CC007B6893F82130DBB2022B05D07B680422B6
:1017DC009A630123FB7351E07B681B681A687B6872
:1017EC001B6822F00E021A607B681B681A687B6803
:1017FC001B6822F001021A607B681B68224A934224
:10180C0029D07B681B68214A934222D07B681B68D5
:10181C001F4A93421AD07B681B681E4A934212D00F
:10182C007B681B681C4A93420AD07B681B681B4A66
:10183C00934202D14FF480130EE04FF080730BE013
:10184C004FF4803308E04FF4805305E04FF480737D
:10185C0002E0102300E00123114A53607B6801224F
:10186C0083F821207B68002283F820207B685B6B47
:10187C00002B03D07B685B6B78689847FB7B184622
:10188C001037BD4680BD00BF080002401C0002405E
:10189C003000024044000240580002406C000240FC
:1018AC000000024080B584B000AF78607B68DB6BD1
:1018BC001B68FB607B681B681B68BB607B681B6CD0
:1018CC0004229A40FB681340002B4FD0BB6803F0F6
:1018DC000403002B4AD07B681B681B6803F02003B1
:1018EC00002B07D17B681B681A687B681B6822F089
:1018FC0004021A607B681B68664A934229D07B6895
:10190C001B68654A934222D07B681B68634A9342EA
:10191C001AD07B681B68624A934212D07B681B68A2
:10192C00604A93420AD07B681B685F4A934202D19B
:10193C004FF480030EE04FF080630BE04FF48023F4
:10194C0008E04FF4804305E04FF4806302E040234D
:10195C0000E00423554A53607B68DB6A002B00F0DF
:10196C0094807B68DB6A786898478EE07B681B6C98
:10197C0002229A40FB681340002B56D0BB6803F040
:10198C000203002B51D07B681B681B6803F02003FB
:10199C00002B0BD17B681B681A687B681B6822F0D4
:1019AC000A021A607B68012283F821207B681B687D
:1019BC00384A934229D07B681B68374A934222D01D
:1019CC007B681B68354A93421AD07B681B68344A83
:1019DC00934212D07B681B68324A93420AD07B68D0
:1019EC001B68314A934202D14FF400130EE04FF0C2
:1019FC0000730BE04FF4003308E04FF4005305E0A4
:101A0C004FF4007302E0202300E00223274A5360C6
:101A1C007B68002283F820207B689B6A002B34D0E3
:101A2C007B689B6A786898472FE07B681B6C082260
:101A3C009A40FB681340002B28D0BB6803F00803C6
:101A4C00002B23D07B681B681A687B681B6822F00C
:101A5C000E021A607B681A6C7B68DB6B012101FA41
:101A6C0002F25A607B6801229A637B68012283F838
:101A7C0021207B68002283F820207B681B6B002BC5
:101A8C0004D07B681B6B7868984700BF00BF103789
:101A9C00BD4680BD080002401C00024030000240E0
:101AAC0044000240580002406C000240000002401A
:101ABC0080B485B000AFF860B9607A603B60FB68B9
:101ACC001A6CFB68DB6B012101FA02F25A60FB68AD
:101ADC001B683A685A60FB685B68102B08D1FB687E
:101AEC001B687A689A60FB681B68BA68DA6007E062
:101AFC00FB681B68BA689A60FB681B687A68DA60D6
:101B0C0000BF1437BD4680BC7047000080B48BB05A
:101B1C0000AF7860396000237B6200233B6261E197
:101B2C0001227B6A02FA03F3FB613B681B68FA69CA
:101B3C001340BB61BA69FB699A4240F050813B6823
:101B4C005B68974A93425ED0954A934275D8954A02
:101B5C00934258D0934A93426FD8934A934252D0AF
:101B6C00914A934269D8914A93424CD08F4A9342FE
:101B7C0063D88F4A934246D08D4A93425DD8122B3C
:101B8C002AD8122B59D801A252F823F0131C0008A2
:101B9C00ED1B0008FF1B0008411C0008471C000837
:101BAC00471C0008471C0008471C0008471C00087D
:101BBC00471C0008471C0008471C0008471C00086D
:101BCC00471C0008471C0008471C0008471C00085D
:101BDC00F51B0008091C0008764A934213D02CE030
:101BEC003B68DB683B6229E03B68DB6804333B62A3
:101BFC0024E03B68DB6808333B621FE03B68DB6832
:101C0C000C333B621AE03B689B68002B02D1042327
:101C1C003B6213E03B689B68012B05D108233B62B8
:101C2C007B68FA691A6109E008233B627B68FA69F0
:101C3C005A6103E000233B6200E000BFBB69FF2B4D
:101C4C0001D87B6801E07B6804337B61BB69FF2BA7
:101C5C0002D87B6A9B0002E07B6A083B9B003B61DD
:101C6C007B691A680F213B6901FA03F3DB431A40C5
:101C7C00396A3B6901FA03F31A437B691A603B68C2
:101C8C005B6803F08053002B00F0A9804A4B9B69E2
:101C9C00494A43F001039361474B9B6903F00103ED
:101CAC00BB60BB68454A7B6A9B08023352F8233001
:101CBC00FB607B6A03F003039B000F2202FA03F321
:101CCC00DB43FA681340FB607B683D4A93420DD0BE
:101CDC007B683C4A934207D07B683B4A934201D1D4
:101CEC00022304E0032302E0012300E000237A6ACC
:101CFC0002F0030292009340FA681343FB602F49F1
:101D0C007B6A9B080233FA6841F823203B685B68C6
:101D1C0003F48013002B06D02C4B9A682B49BB691B
:101D2C0013438B6006E0294B9A68BB69DB43274958
:101D3C0013408B603B685B6803F40013002B06D0E8
:101D4C00224BDA682149BB691343CB6006E01F4B79
:101D5C00DA68BB69DB431D491340CB603B685B68A9
:101D6C0003F40033002B06D0184B5A681749BB6993
:101D7C0013434B6006E0154B5A68BB69DB431349B0
:101D8C0013404B603B685B6803F48033002B1FD01F
:101D9C000E4B1A680D49BB6913430B601FE000BF63
:101DAC000000321000003110000022100000211041
:101DBC000000121000001110001002400000014041
:101DCC0000080140000C01400010014000040140DB
:101DDC000B4B1A68BB69DB43094913400B607B6AE8
:101DEC0001337B623B681A687B6A22FA03F3002B8F
:101DFC007FF496AE00BF00BF2C37BD4680BC704749
:101E0C000004014080B483B000AF78600B467B8047
:101E1C0013467B707B78002B03D07A887B681A6121
:101E2C0003E07B881A047B681A6100BF0C37BD463F
:101E3C0080BC704780B584B000AF78607B68002BA5
:101E4C0001D101232BE17B6893F83D30DBB2002BF1
:101E5C0006D17B68002283F83C207868FFF714F8E1
:101E6C007B68242283F83D207B681B681A687B689A
:101E7C001B6822F001021A607B681B681A687B6879
:101E8C001B6842F400421A607B681B681A687B6806
:101E9C001B6822F400421A6001F0F0FBF8607B68CA
:101EAC005B68814A934207D8FB68804A934294BF8F
:101EBC0001230023DBB206E0FB687D4A934294BF0A
:101ECC0001230023DBB2002B01D00123E7E0FB68E8
:101EDC00784AA2FB03239B0CBB607B681B685B6886
:101EEC0023F03F017B681B68BA680A435A607B6821
:101EFC001B681B6A23F03F017B685B686A4A93424C
:101F0C0002D8BB68013309E0BB684FF4967202FB40
:101F1C0003F3694AA2FB03239B0901337A68126815
:101F2C000B4313627B681B68DB6923F44F4222F07E
:101F3C00FF027B685B685C498B4219D8FB68591EB1
:101F4C007B685B685B00B1FBF3F3591C40F6FC73D8
:101F5C000B40002B0AD0FB68591E7B685B685B004A
:101F6C00B1FBF3F30133C3F30B0351E004234FE054
:101F7C007B689B68002B11D1FB68581E7B685968E5
:101F8C000B465B000B44B0FBF3F30133C3F30B03C1
:101F9C00002B0CBF01230023DBB212E0FB68581EA0
:101FAC007B6859680B469B000B4499000B44B0FBB3
:101FBC00F3F30133C3F30B03002B0CBF01230023FA
:101FCC00DBB2002B01D0012322E07B689B68002B45
:101FDC000ED1FB68581E7B6859680B465B000B449E
:101FEC00B0FBF3F30133C3F30B0343F400430FE0F3
:101FFC00FB68581E7B6859680B469B000B44990084
:10200C000B44B0FBF3F30133C3F30B0343F4404332
:10201C00796809681343CB617B681B681B6823F0E4
:10202C00C0017B68DA697B681B6A1A437B681B6892
:10203C000A431A607B681B689B6823F4034323F0F4
:10204C00FF037A6811697A68D26811437A6812685A
:10205C000B4393607B681B68DB6823F0FF017B6894
:10206C005A697B689B691A437B681B680A43DA6070
:10207C007B681B681A687B681B6842F001021A6057
:10208C007B6800221A647B68202283F83D207B68E1
:10209C0000221A637B68002283F83E200023184636
:1020AC001037BD4680BD00BFA08601007F841E0096
:1020BC00FF083D0083DE1B43D34D621080B588B012
:1020CC0002AFF860084611461A4603467B810B4660
:1020DC003B811346FB80FFF73BF97861FB6893F873
:1020EC003D30DBB2202B40F0D9807B690093192363
:1020FC0001226D49F86800F0C1FC0346002B01D0A9
:10210C000223CCE0FB6893F83C30012B01D1022375
:10211C00C5E0FB68012283F83C20FB681B681B6848
:10212C0003F00103012B07D0FB681B681A68FB68DE
:10213C001B6842F001021A60FB681B681A68FB6896
:10214C001B6822F400621A60FB68212283F83D2090
:10215C00FB68402283F83E20FB6800221A64FB686F
:10216C003A6A5A62FB68BA8C5A85FB685B8D9AB2E4
:10217C00FB681A85FB684D4ADA62F8883A897989D6
:10218C007B690193BB6A00930346F86800F0F8FA88
:10219C000346002B52D0012381E07A69B96AF868B2
:1021AC0000F086FD0346002B0DD0FB681B6C042B46
:1021BC0007D1FB681B681A68FB681B6842F4007245
:1021CC001A6001236BE0FB685B6A1A78FB681B687A
:1021DC001A61FB685B6A5A1CFB685A62FB681B8DB0
:1021EC00013B9AB2FB681A85FB685B8D9BB2013B85
:1021FC009AB2FB685A85FB681B685B6903F00403A1
:10220C00042B1BD1FB681B8D002B17D0FB685B6A62
:10221C001A78FB681B681A61FB685B6A5A1CFB68BE
:10222C005A62FB681B8D013B9AB2FB681A85FB68EE
:10223C005B8D9BB2013B9AB2FB685A85FB681B8D88
:10224C00002BAAD17A69B96AF86800F079FD0346C7
:10225C00002B0DD0FB681B6C042B07D1FB681B6893
:10226C001A68FB681B6842F400721A60012316E0BE
:10227C00FB681B681A68FB681B6842F400721A60E2
:10228C00FB68202283F83D20FB68002283F83E2067
:10229C00FB68002283F83C20002300E00223184650
:1022AC001837BD4680BD00BF020010000000FFFFC4
:1022BC0080B58CB002AFF860084611461A4603464A
:1022CC007B810B463B811346FB8000233B62FFF76F
:1022DC003FF87862FB6893F83D30DBB2202B40F07E
:1022EC0044827B6A0093192301228249F86800F02A
:1022FC00C5FB0346002B01D0022337E2FB6893F8A1
:10230C003C30012B01D1022330E2FB68012283F81F
:10231C003C20FB681B681B6803F00103012B07D0F2
:10232C00FB681B681A68FB681B6842F001021A60A4
:10233C00FB681B681A68FB681B6822F400621A6051
:10234C00FB68222283F83D20FB68402283F83E2064
:10235C00FB6800221A64FB683A6B5A62FB68BA8EFF
:10236C005A85FB685B8D9AB2FB681A85FB68624ADA
:10237C00DA62F8883A8979897B6A0193BB6B00939E
:10238C000346F86800F092FA0346002B01D00123B3
:10239C00ECE1FB681B8D002B13D10023FB61FB6868
:1023AC001B685B69FB61FB681B689B69FB61FB69D4
:1023BC00FB681B681A68FB681B6842F400721A60A1
:1023CC00C0E1FB681B8D012B1ED1FB681B681A68D2
:1023DC00FB681B6822F480621A6072B600BF00238F
:1023EC00BB61FB681B685B69BB61FB681B689B6915
:1023FC00BB61BB69FB681B681A68FB681B6842F40D
:10240C0000721A6062B635E0FB681B8D022B1ED180
:10241C00FB681B681A68FB681B6842F400621A6050
:10242C0072B600BF00237B61FB681B685B697B6134
:10243C00FB681B689B697B617B69FB681B681A687E
:10244C00FB681B6822F480621A6062B612E0FB68BB
:10245C001B681A68FB681B6842F480621A600023D0
:10246C003B61FB681B685B693B61FB681B689B6994
:10247C003B613B6966E1FB681B8D032B00F21F81FE
:10248C00FB681B8D012B23D17A6AB96BF86800F0BD
:10249C009FFC0346002B01D0012367E1FB681B68FE
:1024AC001A69FB685B6AD2B21A70FB685B6A5A1CC9
:1024BC00FB685A62FB681B8D013B9AB2FB681A855C
:1024CC00FB685B8D9BB2013B9AB2FB685A8539E184
:1024DC00FB681B8D022B52D17B6A0093BB6B0022D5
:1024EC000649F86800F0CAFA0346002B08D001230D
:1024FC003CE100BF020010000000FFFF04000100DF
:10250C0072B600BFFB681B681A68FB681B6842F454
:10251C0000721A60FB681B681A69FB685B6AD2B2AE
:10252C001A70FB685B6A5A1CFB685A62FB681B8D4D
:10253C00013B9AB2FB681A85FB685B8D9BB2013B31
:10254C009AB2FB685A8562B600BFFB681B681A69B1
:10255C00FB685B6AD2B21A70FB685B6A5A1CFB6838
:10256C005A62FB681B8D013B9AB2FB681A85FB68AB
:10257C005B8D9BB2013B9AB2FB685A85E2E07B6AA9
:10258C000093BB6B00227B49F86800F077FA034696
:10259C00002B01D00123E9E0FB681B681A68FB687B
:1025AC001B6822F480621A6072B600BFFB681B685D
:1025BC001A69FB685B6AD2B21A70FB685B6A5A1CB8
:1025CC00FB685A62FB681B8D013B9AB2FB681A854B
:1025DC00FB685B8D9BB2013B9AB2FB685A85664BDC
:1025EC001B68DB08654AA2FB03231A0A13469B00EF
:1025FC001344DA00D31A3B623B6A013B3B623B6AF1
:10260C00002B18D1FB6800221A63FB68202283F888
:10261C003D20FB68002283F83E20FB681B6C43F0D6
:10262C002002FB681A6462B600BFFB68002283F8C4
:10263C003C2001239AE0FB681B685B6903F00403F0
:10264C00042BD9D1FB681B681A68FB681B6842F421
:10265C0000721A60FB681B681A69FB685B6AD2B26D
:10266C001A70FB685B6A5A1CFB685A62FB681B8D0C
:10267C00013B9AB2FB681A85FB685B8D9BB2013BF0
:10268C009AB2FB685A8562B600BFFB681B681A6970
:10269C00FB685B6AD2B21A70FB685B6A5A1CFB68F7
:1026AC005A62FB681B8D013B9AB2FB681A85FB686A
:1026BC005B8D9BB2013B9AB2FB685A8542E07A6A09
:1026CC00B96BF86800F084FB0346002B01D00123A2
:1026DC004CE0FB681B681A69FB685B6AD2B21A7023
:1026EC00FB685B6A5A1CFB685A62FB681B8D013BDA
:1026FC009AB2FB681A85FB685B8D9BB2013B9AB260
:10270C00FB685A85FB681B685B6903F00403042BA8
:10271C0018D1FB681B681A69FB685B6AD2B21A7025
:10272C00FB685B6A5A1CFB685A62FB681B8D013B99
:10273C009AB2FB681A85FB685B8D9BB2013B9AB21F
:10274C00FB685A85FB681B8D002B7FF494AEFB68ED
:10275C00202283F83D20FB68002283F83E20FB6892
:10276C00002283F83C20002300E00223184628377F
:10277C00BD4680BD040001000000002089B5F8149E
:10278C0080B588B002AFF860084611461A46034679
:10279C007B810B463B811346FB80FB681B681A68E8
:1027AC00FB681B6842F480721A607B6A00933B6A78
:1027BC0000224FF00111F86800F060F90346002B7D
:1027CC000DD0FB681B681B6803F48073B3F5807F26
:1027DC0003D1FB684FF400721A6403235FE07B891A
:1027EC00DBB21A46FB681B6802F0FE021A617B6AB8
:1027FC003A6A2D49F86800F0BBF90346002B01D06A
:10280C0001234CE000237B61FB681B685B697B61E7
:10281C00FB681B689B697B617B697A6A396AF8681B
:10282C0000F046FA0346002B0DD0FB681B6C042B02
:10283C0007D1FB681B681A68FB681B6842F40072BE
:10284C001A6001232BE0FB88012B05D13B89DAB2FE
:10285C00FB681B681A6121E03B891B0A9BB2DAB248
:10286C00FB681B681A617A6A396AF86800F020FA0A
:10287C000346002B0DD0FB681B6C042B07D1FB68A7
:10288C001B681A68FB681B6842F400721A6001230B
:10289C0005E03B89DAB2FB681B681A610023184615
:1028AC001837BD4680BD00BF0200010080B588B05E
:1028BC0002AFF860084611461A4603467B810B4668
:1028CC003B811346FB80FB681B681A68FB681B681E
:1028DC0042F480621A60FB681B681A68FB681B680C
:1028EC0042F480721A607B6A00933B6A00224FF0BC
:1028FC000111F86800F0C2F80346002B0DD0FB68FC
:10290C001B681B6803F48073B3F5807F03D1FB68ED
:10291C004FF400721A640323AAE07B89DBB21A46D7
:10292C00FB681B6802F0FE021A617B6A3A6A524924
:10293C00F86800F01DF90346002B01D0012397E045
:10294C0000237B61FB681B685B697B61FB681B6810
:10295C009B697B617B697A6A396AF86800F0A8F92F
:10296C000346002B0DD0FB681B6C042B07D1FB68B6
:10297C001B681A68FB681B6842F400721A6001231A
:10298C0076E0FB88012B05D13B89DAB2FB681B682A
:10299C001A6121E03B891B0A9BB2DAB2FB681B6807
:1029AC001A617A6A396AF86800F082F90346002BDA
:1029BC000DD0FB681B6C042B07D1FB681B681A68D5
:1029CC00FB681B6842F400721A60012350E03B89DB
:1029DC00DAB2FB681B681A617A6A396AF86800F027
:1029EC0067F90346002B0DD0FB681B6C042B07D139
:1029FC00FB681B681A68FB681B6842F400721A605B
:102A0C00012335E0FB681B681A68FB681B6842F4FD
:102A1C0080721A607B6A00933B6A00224FF00111AE
:102A2C00F86800F02BF80346002B0DD0FB681B68F0
:102A3C001B6803F48073B3F5807F03D1FB684FF4FC
:102A4C0000721A64032313E07B89DBB243F00103A9
:102A5C00DAB2FB681B681A617B6A3A6A0649F86845
:102A6C0000F086F80346002B01D0012300E0002380
:102A7C0018461837BD4680BD0200010080B584B0F1
:102A8C0000AFF860B9603B601346FB7148E03B68EF
:102A9C00B3F1FF3F44D0FEF75BFC0246BB69D31A8F
:102AAC003A689A4202D33B68002B39D1BB681B0CA5
:102ABC00DBB2012B0DD1FB681B685B69DA43BB6889
:102ACC0013409BB2002B0CBF01230023DBB21A4630
:102ADC000CE0FB681B689B69DA43BB6813409BB234
:102AEC00002B0CBF01230023DBB21A46FB799A4260
:102AFC0016D1FB6800221A63FB68202283F83D2064
:102B0C00FB68002283F83E20FB681B6C43F020021C
:102B1C00FB681A64FB68002283F83C20012323E045
:102B2C00BB681B0CDBB2012B0DD1FB681B685B690E
:102B3C00DA43BB6813409BB2002B0CBF012300236C
:102B4C00DBB21A460CE0FB681B689B69DA43BB6876
:102B5C0013409BB2002B0CBF01230023DBB21A469F
:102B6C00FB799A4293D0002318461037BD4680BD9E
:102B7C0080B584B000AFF860B9607A603B6071E0FA
:102B8C00FB681B685B6903F48063B3F5806F23D12A
:102B9C00FB681B681A68FB681B6842F400721A60B9
:102BAC00FB681B686FF480625A61FB6800221A6331
:102BBC00FB68202283F83D20FB68002283F83E202E
:102BCC00FB681B6C43F00402FB681A64FB68002270
:102BDC0083F83C20012367E07B68B3F1FF3F41D0D1
:102BEC00FEF7B6FB02463B68D31A7A689A4202D3C8
:102BFC007B68002B36D1BB681B0CDBB2012B0CD1D4
:102C0C00FB681B685B69DA43BB6813409BB2002B03
:102C1C0014BF01230023DBB20BE0FB681B689B692C
:102C2C00DA43BB6813409BB2002B14BF0123002373
:102C3C00DBB2002B16D0FB6800221A63FB68202243
:102C4C0083F83D20FB68002283F83E20FB681B6C58
:102C5C0043F02002FB681A64FB68002283F83C20D6
:102C6C00012321E0BB681B0CDBB2012B0CD1FB68F0
:102C7C001B685B69DA43BB6813409BB2002B14BF23
:102C8C0001230023DBB20BE0FB681B689B69DA4372
:102C9C00BB6813409BB2002B14BF01230023DBB293
:102CAC00002B7FF46DAF002318461037BD4680BD56
:102CBC0080B584B000AFF860B9607A6034E0F86831
:102CCC0000F0E3F80346002B01D0012334E0BB688D
:102CDC00B3F1FF3F28D0FEF73BFB02467B68D31ACB
:102CEC00BA689A4202D3BB68002B1DD1FB681B68E3
:102CFC005B6903F08003802B16D0FB6800221A63FB
:102D0C00FB68202283F83D20FB68002283F83E20DC
:102D1C00FB681B6C43F02002FB681A64FB68002202
:102D2C0083F83C20012307E0FB681B685B6903F018
:102D3C008003802BC3D1002318461037BD4680BDBD
:102D4C0080B584B000AFF860B9607A6034E0F868A0
:102D5C0000F09BF80346002B01D0012334E0BB6844
:102D6C00B3F1FF3F28D0FEF7F3FA02467B68D31A83
:102D7C00BA689A4202D3BB68002B1DD1FB681B6852
:102D8C005B6903F00403042B16D0FB6800221A6362
:102D9C00FB68202283F83D20FB68002283F83E204C
:102DAC00FB681B6C43F02002FB681A64FB68002272
:102DBC0083F83C20012307E0FB681B685B6903F088
:102DCC000403042BC3D1002318461037BD4680BD25
:102DDC0080B584B000AFF860B9607A6049E0FB68F8
:102DEC001B685B6903F01003102B19D1FB681B687F
:102DFC006FF010025A61FB6800221A63FB682022F4
:102E0C0083F83D20FB68002283F83E20FB681A6C97
:102E1C00FB681A64FB68002283F83C20012330E035
:102E2C00FEF796FA02467B68D31ABA689A4202D326
:102E3C00BB68002B1DD1FB681B685B6903F040036A
:102E4C00402B16D0FB6800221A63FB68202283F803
:102E5C003D20FB68002283F83E20FB681B6C43F08E
:102E6C002002FB681A64FB68002283F83C200123D3
:102E7C0007E0FB681B685B6903F04003402BAED195
:102E8C00002318461037BD4680BD80B483B000AF18
:102E9C0078607B681B685B6903F48063B3F5806FB3
:102EAC001BD17B681B686FF480625A617B680022BF
:102EBC001A637B68202283F83D207B68002283F80C
:102ECC003E207B681B6C43F004027B681A647B68B1
:102EDC00002283F83C20012300E0002318460C3725
:102EEC00BD4680BC7047000080B586B000AF7860EE
:102EFC007B68002B01D1012372E27B681B6803F015
:102F0C000103002B00F08780924B5B6803F00C03ED
:102F1C00042B0CD08F4B5B6803F00C03082B12D1E5
:102F2C008C4B5B6803F48033B3F5803F0BD1894B3A
:102F3C001B6803F40033002B6CD07B685B68002BA0
:102F4C0068D101234CE27B685B68B3F5803F06D106
:102F5C00804B1B687F4A43F4803313602EE07B6800
:102F6C005B68002B0CD17B4B1B687A4A23F48033B3
:102F7C001360784B1B68774A23F4802313601DE0A1
:102F8C007B685B68B3F5A02F0CD1724B1B68714A40
:102F9C0043F4802313606F4B1B686E4A43F48033F9
:102FAC0013600BE06B4B1B686A4A23F4803313608D
:102FBC00684B1B68674A23F4802313607B685B684B
:102FCC00002B13D0FEF7C4F9386108E0FEF7C0F906
:102FDC0002463B69D31A642B01D9032300E25D4BF3
:102FEC001B6803F40033002BF0D014E0FEF7B0F9AB
:102FFC00386108E0FEF7ACF902463B69D31A642B42
:10300C0001D90323ECE1534B1B6803F40033002B71
:10301C00F0D100E000BF7B681B6803F00203002BBB
:10302C0063D04C4B5B6803F00C03002B0BD0494B6B
:10303C005B6803F00C03082B1CD1464B5B6803F454
:10304C008033002B16D1434B1B6803F00203002B7B
:10305C0005D07B681B69012B01D00123C0E13D4BDE
:10306C001B6823F0F8027B685B69DB00394913436A
:10307C000B603AE07B681B69002B20D0364B012299
:10308C001A60FEF765F9386108E0FEF761F902464F
:10309C003B69D31A022B01D90323A1E12D4B1B68E9
:1030AC0003F00203002BF0D02A4B1B6823F0F8022C
:1030BC007B685B69DB00274913430B6015E0264BEB
:1030CC0000221A60FEF744F9386108E0FEF740F977
:1030DC0002463B69D31A022B01D9032380E11D4B15
:1030EC001B6803F00203002BF0D17B681B6803F014
:1030FC000803002B3AD07B689B69002B19D0174B27
:10310C0001221A60FEF724F9386108E0FEF720F975
:10311C0002463B69D31A022B01D9032360E10D4B04
:10312C005B6A03F00203002BF0D0012000F0CEFA12
:10313C001CE00A4B00221A60FEF70AF938610FE016
:10314C00FEF706F902463B69D31A022B08D9032372
:10315C0046E100BF0010024000004242800442429F
:10316C00924B5B6A03F00203002BE9D17B681B686E
:10317C0003F00403002B00F0A6800023FB758B4B9F
:10318C00DB6903F08053002B0DD1884BDB69874A38
:10319C0043F08053D361854BDB6903F08053BB60F4
:1031AC00BB680123FB75824B1B6803F48073002BF7
:1031BC0018D17F4B1B687E4A43F480731360FEF773
:1031CC00C7F8386108E0FEF7C3F802463B69D31A2A
:1031DC00642B01D9032303E1754B1B6803F4807343
:1031EC00002BF0D07B68DB68012B06D16F4B1B6A80
:1031FC006E4A43F0010313622DE07B68DB68002B01
:10320C000CD16A4B1B6A694A23F001031362674BAA
:10321C001B6A664A23F0040313621CE07B68DB68BC
:10322C00052B0CD1614B1B6A604A43F004031362FB
:10323C005E4B1B6A5D4A43F0010313620BE05B4B70
:10324C001B6A5A4A23F001031362584B1B6A574AF4
:10325C0023F0040313627B68DB68002B15D0FEF7A8
:10326C0077F838610AE0FEF773F802463B69D31A27
:10327C0041F28832934201D90323B1E04B4B1B6AD4
:10328C0003F00203002BEED014E0FEF761F8386176
:10329C000AE0FEF75DF802463B69D31A41F2883228
:1032AC00934201D903239BE0404B1B6A03F00203BA
:1032BC00002BEED1FB7D012B05D13C4BDB693B4A4E
:1032CC0023F08053D3617B68DB69002B00F087808F
:1032DC00364B5B6803F00C03082B61D07B68DB6911
:1032EC00022B46D1334B00221A60FEF731F83861BD
:1032FC0008E0FEF72DF802463B69D31A022B01D9E0
:10330C0003236DE0294B1B6803F00073002BF0D1F5
:10331C007B681B6AB3F5803F08D1244B5B6823F4B0
:10332C0000327B689B68214913434B601F4B5B68E1
:10333C0023F474127B68196A7B685B6A0B431B4924
:10334C0013434B601B4B01221A60FEF701F83861E6
:10335C0008E0FDF7FDFF02463B69D31A022B01D9A9
:10336C0003233DE0114B1B6803F00073002BF0D0DE
:10337C0035E0104B00221A60FDF7EAFF386108E0D7
:10338C00FDF7E6FF02463B69D31A022B01D9032352
:10339C0026E0064B1B6803F00073002BF0D11EE0F7
:1033AC007B68DB69012B07D1012319E00010024077
:1033BC0000700040600042420B4B5B68FB60FB6896
:1033CC0003F480327B681B6A9A4206D1FB6803F4D3
:1033DC0070127B685B6A9A4201D0012300E00023E3
:1033EC0018461837BD4680BD0010024080B584B029
:1033FC0000AF786039607B68002B01D10123D0E0ED
:10340C006A4B1B6803F007033A689A4210D9674B62
:10341C001B6823F0070265493B6813430B60634B41
:10342C001B6803F007033A689A4201D00123B8E005
:10343C007B681B6803F00203002B20D07B681B68A1
:10344C0003F00403002B05D0594B5B68584A43F436
:10345C00E06353607B681B6803F00803002B05D006
:10346C00534B5B68524A43F460535360504B5B6858
:10347C0023F0F0027B689B684D4913434B607B68DB
:10348C001B6803F00103002B40D07B685B68012BA9
:10349C0007D1474B1B6803F40033002B15D10123D4
:1034AC007FE07B685B68022B07D1414B1B6803F004
:1034BC000073002B09D1012373E03D4B1B6803F013
:1034CC000203002B01D101236BE0394B5B6823F025
:1034DC0003027B685B68364913434B60FDF738FF8A
:1034EC00F8600AE0FDF734FF0246FB68D31A41F29C
:1034FC008832934201D9032353E02D4B5B6803F0D0
:10350C000C027B685B689B009A42EBD1274B1B68D3
:10351C0003F007033A689A4210D2244B1B6823F03D
:10352C00070222493B6813430B60204B1B6803F0D6
:10353C0007033A689A4201D0012332E07B681B688A
:10354C0003F00403002B08D0194B5B6823F4E062F2
:10355C007B68DB68164913434B607B681B6803F080
:10356C000803002B09D0124B5B6823F460527B6874
:10357C001B69DB000E4913434B6000F021F8024637
:10358C000B4B5B681B0903F00F030A49CB5C22FA57
:10359C0003F3094A1360094B1B681846FDF796FEA6
:1035AC00002318461037BD4680BD00BF00200240E6
:1035BC0000100240B45F000800000020040000204E
:1035CC0080B487B000AF0023FB600023BB600023F6
:1035DC007B6100237B6000233B611E4B5B68FB60BF
:1035EC00FB6803F00C03042B02D0082B03D027E05C
:1035FC00194B3B6127E0FB689B0C03F00F03174A48
:10360C00D35C7B60FB6803F48033002B10D0114B30
:10361C005B685B0C03F00103114AD35CBB607B68F5
:10362C000D4A03FB02F2BB68B2FBF3F37B6104E0CF
:10363C007B680C4A02FB03F37B617B693B6102E014
:10364C00054B3B6100BF3B6918461C37BD4680BC2F
:10365C00704700BF0010024000127A00CC5F0008D7
:10366C00DC5F000800093D0080B400AF024B1B6812
:10367C001846BD4680BC70470000002080B500AFE6
:10368C00FFF7F2FF0246054B5B681B0A03F00703CA
:10369C000349CB5C22FA03F3184680BD00100240AC
:1036AC00C45F000880B500AFFFF7DEFF0246054B94
:1036BC005B68DB0A03F007030349CB5C22FA03F3D4
:1036CC00184680BD00100240C45F000880B485B06D
:1036DC0000AF78600A4B1B680A4AA2FB03235B0A03
:1036EC007A6802FB03F3FB6000BFFB685A1EFA60AA
:1036FC00002BF9D100BF00BF1437BD4680BC70470A
:10370C0000000020D34D621080B582B000AF78600D
:10371C007B68002B01D1012376E07B685B6A002B70
:10372C0008D17B685B68B3F5827F09D07B68002287
:10373C00DA6105E07B6800221A617B6800225A611D
:10374C007B6800229A627B6893F85130DBB2002BC5
:10375C0006D17B68002283F850207868FDF7D4FBF3
:10376C007B68022283F851207B681B681A687B688F
:10377C001B6822F040021A607B685B6803F482725B
:10378C007B689B6803F404431A437B68DB6803F48F
:10379C0000631A437B681B6903F002031A437B68BE
:1037AC005B6903F001031A437B689B6903F40073A4
:1037BC001A437B68DB6903F038031A437B681B6A86
:1037CC0003F0800342EA03017B689B6A03F4005216
:1037DC007B681B680A431A607B689B691A0C7B68C0
:1037EC001B6802F004025A607B681B68DA697B680C
:1037FC001B6822F40062DA617B6800225A657B68E0
:10380C00012283F85120002318460837BD4680BD9D
:10381C0080B588B000AFF860B9603B601346FB80A0
:10382C000023FB77FB6893F85030012B01D1022366
:10383C002DE1FB68012283F85020FDF789FDB8616A
:10384C00FB88FB82FB6893F85130DBB2012B02D072
:10385C000223FB7716E1BB68002B02D0FB88002B00
:10386C0002D10123FB770DE1FB68032283F8512081
:10387C00FB6800225A65FB68BA681A63FB68FA8811
:10388C009A86FB68FA88DA86FB6800229A63FB68E2
:10389C0000229A87FB680022DA87FB6800225A64B0
:1038AC00FB6800221A64FB689B68B3F5004F0FD1CC
:1038BC00FB681B681A68FB681B6822F040021A60E0
:1038CC00FB681B681A68FB681B6842F480421A602C
:1038DC00FB681B681B6803F04003402B07D0FB6898
:1038EC001B681A68FB681B6842F040021A60FB6890
:1038FC00DB68B3F5006F4FD1FB685B68002B02D01F
:10390C00FB8A012B42D1FB681B6B1A88FB681B6876
:10391C00DA60FB681B6B9A1CFB681A63FB68DB8E16
:10392C009BB2013B9AB2FB68DA862FE0FB681B68FE
:10393C009B6803F00203022B12D1FB681B6B1A88E5
:10394C00FB681B68DA60FB681B6B9A1CFB681A63CC
:10395C00FB68DB8E9BB2013B9AB2FB68DA8615E002
:10396C00FDF7F6FC0246BB69D31A3A689A4203D8B3
:10397C003B68B3F1FF3F02D13B68002B06D1032318
:10398C00FB77FB68012283F851207BE0FB68DB8E20
:10399C009BB2002BCAD150E0FB685B68002B02D0B5
:1039AC00FB8A012B44D1FB681A6BFB681B680C3338
:1039BC0012781A70FB681B6B5A1CFB681A63FB6845
:1039CC00DB8E9BB2013B9AB2FB68DA8630E0FB6877
:1039DC001B689B6803F00203022B13D1FB681A6B64
:1039EC00FB681B680C3312781A70FB681B6B5A1C33
:1039FC00FB681A63FB68DB8E9BB2013B9AB2FB68D7
:103A0C00DA8615E0FDF7A4FC0246BB69D31A3A68C6
:103A1C009A4203D83B68B3F1FF3F02D13B68002BBD
:103A2C0006D10323FB77FB68012283F8512029E0A0
:103A3C00FB68DB8E9BB2002BC9D1BA693968F86878
:103A4C0000F0CCFB0346002B02D0FB6820225A6509
:103A5C00FB689B68002B0AD100233B61FB681B6849
:103A6C00DB683B61FB681B689B683B613B69FB68DF
:103A7C005B6D002B02D00123FB7703E0FB68012276
:103A8C0083F85120FB68002283F85020FB7F1846F6
:103A9C002037BD4680BD80B588B002AFF860B960F4
:103AAC003B601346FB800023FB75FB6893F8513099
:103ABC00DBB2012B02D00223FB75FBE0FB685B68D9
:103ACC00B3F5827F12D1FB689B68002B0ED1FB688B
:103ADC00042283F85120FA883B6800931346BA6895
:103AEC00B968F86800F0EFF80346E8E0FB6893F873
:103AFC005030012B01D10223E1E0FB68012283F855
:103B0C005020FDF725FC3861BB68002B02D0FB88E8
:103B1C00002B02D10123FB75CCE0FB68042283F857
:103B2C005120FB6800225A65FB68BA689A63FB68EF
:103B3C00FA889A87FB68FA88DA87FB6800221A638E
:103B4C00FB6800229A86FB680022DA86FB6800225A
:103B5C001A64FB6800225A64FB689B68B3F5004F3B
:103B6C000FD1FB681B681A68FB681B6822F04002C7
:103B7C001A60FB681B681A68FB681B6822F4804299
:103B8C001A60FB681B681B6803F04003402B07D0CE
:103B9C00FB681B681A68FB681B6842F040021A60DD
:103BAC00FB68DB68002B6AD132E0FB681B689B6802
:103BBC0003F00103012B15D1FB681B6803F10C0208
:103BCC00FB689B6B1278D2B21A70FB689B6B5A1C09
:103BDC00FB689A63FB68DB8F9BB2013B9AB2FB6874
:103BEC00DA8715E0FDF7B4FB02463B69D31A3A6855
:103BFC009A4203D83B68B3F1FF3F02D13B68002BDC
:103C0C0006D10323FB75FB68012283F8512051E098
:103C1C00FB68DB8F9BB2002BC7D135E0FB681B68C0
:103C2C009B6803F00103012B13D1FB681B68DA6856
:103C3C00FB689B6B92B21A80FB689B6B9A1CFB68AF
:103C4C009A63FB68DB8F9BB2013B9AB2FB68DA8705
:103C5C0015E0FDF77DFB02463B69D31A3A689A42A0
:103C6C0003D83B68B3F1FF3F02D13B68002B06D170
:103C7C000323FB75FB68012283F851201AE0FB68D3
:103C8C00DB8F9BB2002BC9D13A693968F86800F018
:103C9C0053FA0346002B02D0FB6820225A65FB68BE
:103CAC005B6D002B02D00123FB7503E0FB68012246
:103CBC0083F85120FB68002283F85020FB7D1846C6
:103CCC001837BD4680BD80B58CB000AFF860B960C8
:103CDC007A607B800123FB62002387F82B30FB6822
:103CEC0093F85030012B01D1022398E1FB6801229B
:103CFC0083F85020FDF72CFB7862FB6893F8513069
:103D0C0087F82330FB685B68FB617B887B8397F8C3
:103D1C002330012B0FD0FB69B3F5827F07D1FB68F1
:103D2C009B68002B03D197F82330042B03D002237C
:103D3C0087F82B306DE1BB68002B05D07B68002B1E
:103D4C0002D07B88002B03D1012387F82B3060E154
:103D5C00FB6893F85130DBB2042B03D0FB680522CF
:103D6C0083F85120FB6800225A65FB687A689A63D5
:103D7C00FB687A88DA87FB687A889A87FB68BA6866
:103D8C001A63FB687A88DA86FB687A889A86FB68FD
:103D9C0000221A64FB6800225A64FB681B681B68CB
:103DAC0003F04003402B07D0FB681B681A68FB68C4
:103DBC001B6842F040021A60FB68DB68B3F5006FC9
:103DCC007CD1FB685B68002B02D07B8B012B6AD10A
:103DDC00FB681B6B1A88FB681B68DA60FB681B6B43
:103DEC009A1CFB681A63FB68DB8E9BB2013B9AB290
:103DFC00FB68DA8657E0FB681B689B6803F00203DC
:103E0C00022B1BD1FB68DB8E9BB2002B16D0FB6AFE
:103E1C00012B13D1FB681B6B1A88FB681B68DA60DB
:103E2C00FB681B6B9A1CFB681A63FB68DB8E9BB2EE
:103E3C00013B9AB2FB68DA860023FB62FB681B68C5
:103E4C009B6803F00103012B19D1FB68DB8F9BB23C
:103E5C00002B14D0FB681B68DA68FB689B6B92B272
:103E6C001A80FB689B6B9A1CFB689A63FB68DB8F60
:103E7C009BB2013B9AB2FB68DA870123FB62FDF728
:103E8C0067FA02467B6AD31ABA6B9A420BD8BB6BA1
:103E9C00B3F1FF3F07D0032387F82B30FB680122D7
:103EAC0083F85120B5E0FB68DB8E9BB2002BA2D1CE
:103EBC00FB68DB8F9BB2002B9DD180E0FB685B68BD
:103ECC00002B02D07B8B012B6FD1FB681A6BFB682C
:103EDC001B680C3312781A70FB681B6B5A1CFB683E
:103EEC001A63FB68DB8E9BB2013B9AB2FB68DA86E5
:103EFC005BE0FB681B689B6803F00203022B1CD180
:103F0C00FB68DB8E9BB2002B17D0FB6A012B14D104
:103F1C00FB681A6BFB681B680C3312781A70FB6811
:103F2C001B6B5A1CFB681A63FB68DB8E9BB2013B54
:103F3C009AB2FB68DA860023FB62FB681B689B68FD
:103F4C0003F00103012B19D1FB68DB8F9BB2002B13
:103F5C0014D0FB681B68DA68FB689B6BD2B21A70D2
:103F6C00FB689B6B5A1CFB689A63FB68DB8F9BB2EC
:103F7C00013B9AB2FB68DA870123FB62FDF7E8F993
:103F8C0002467B6AD31ABA6B9A4203D8BB6BB3F165
:103F9C00FF3F02D1BB6B002B07D1032387F82B30DB
:103FAC00FB68012283F8512033E0FB68DB8E9BB267
:103FBC00002B9ED1FB68DB8F9BB2002B99D17A6AC8
:103FCC00B96BF86800F00AF90346002B06D0012300
:103FDC0087F82B30FB6820225A651AE0FB689B6837
:103FEC00002B0AD100237B61FB681B68DB687B61BB
:103FFC00FB681B689B687B617B69FB685B6D002BB6
:10400C0003D0012387F82B3003E0FB68012283F8EF
:10401C005120FB68002283F8502097F82B3018466B
:10402C003037BD4680BD000080B588B000AFF86069
:10403C00B9603B601346FB71FDF78AF90246BB6A17
:10404C009B1A3A681344FB61FDF782F9B861394B4E
:10405C001B685B011B0DFA6902FB03F37B6154E0E7
:10406C003B68B3F1FF3F50D0FDF772F90246BB69D4
:10407C00D31AFA699A4202D9FB69002B3DD1FB682D
:10408C001B685A68FB681B6822F0E0025A60FB68E8
:10409C005B68B3F5827F11D1FB689B68B3F5004F69
:1040AC0004D0FB689B68B3F5806F07D1FB681B6875
:1040BC001A68FB681B6822F040021A60FB689B6A56
:1040CC00B3F5005F0FD1FB681B681A68FB681B68AF
:1040DC0022F400521A60FB681B681A68FB681B68A4
:1040EC0042F400521A60FB68012283F85120FB68ED
:1040FC00002283F85020032317E07B69002B01D1A9
:10410C000023FB617B69013B7B61FB681B689A6840
:10411C00BB681340BA689A420CBF01230023DBB280
:10412C001A46FB799A429BD1002318462037BD468C
:10413C0080BD00BF0000002080B586B002AFF860E3
:10414C00B9607A60FB685B68B3F5827F11D1FB685C
:10415C009B68B3F5004F04D0FB689B68B3F5806F88
:10416C0007D1FB681B681A68FB681B6822F04002C9
:10417C001A60FB685B68B3F5827F17D1FB689B689C
:10418C00B3F5806F12D17B680093BB6800220121CC
:10419C00F868FFF749FF0346002B1AD0FB685B6DEC
:1041AC0043F02002FB685A65032313E07B680093FD
:1041BC00BB6800228021F868FFF736FF0346002B0E
:1041CC0007D0FB685B6D43F02002FB685A65032344
:1041DC0000E0002318461037BD4680BD80B586B080
:1041EC0002AFF860B9607A607B680093BB6800220C
:1041FC008021F868FFF718FF0346002B07D0FB68F7
:10420C005B6D43F02002FB685A65032300E000233A
:10421C0018461037BD4680BD80B582B000AF7860BF
:10422C007B68002B01D1012342E07B6893F841307D
:10423C00DBB2002B06D17B68002283F84020786823
:10424C00FCF7ACFE7B68242283F841207B681B685A
:10425C00DA687B681B6822F40052DA60786801F037
:10426C0013F97B681B681A697B681B6822F49042FF
:10427C001A617B681B685A697B681B6822F02A02EA
:10428C005A617B681B68DA687B681B6842F40052D1
:10429C00DA607B6800225A647B68202283F8412014
:1042AC007B68202283F842207B6800225A6300231B
:1042BC0018460837BD4680BD80B582B000AF786027
:1042CC007B68002B01D101234AE07B6893F84130D5
:1042DC00DBB2002B06D17B68002283F84020786883
:1042EC00FCF75CFE7B68242283F841207B681B680A
:1042FC00DA687B681B6822F40052DA60786801F097
:10430C00C3F87B681B681A697B681B6822F49042AF
:10431C001A617B681B685A697B681B6822F0220251
:10432C005A617B681B685A697B681B6842F00802FB
:10433C005A617B681B68DA687B681B6842F4005220
:10434C00DA607B6800225A647B68202283F8412063
:10435C007B68202283F842207B6800225A6300236A
:10436C0018460837BD4680BD80B58AB002AFF860EC
:10437C00B9603B601346FB8000237B61FB6893F8BC
:10438C004130DBB2202B6DD1BB68002B02D0FB88F7
:10439C00002B01D1012366E0FB6800225A64FB6804
:1043AC00212283F84120FCF7D3FF7861FB68FA885F
:1043BC009A84FB68FA88DA84FB689B68B3F5805FA3
:1043CC0008D1FB681B69002B04D10023FB61BB687F
:1043DC00BB6103E0BB68FB610023BB612AE03B6867
:1043EC0000937B6900228021F86800F083FD03466E
:1043FC00002B01D0032336E0FB69002B0BD1BB69EA
:10440C001B881A46FB681B68C2F308025A60BB691A
:10441C000233BB6107E0FB691A78FB681B685A60C2
:10442C00FB690133FB61FB68DB8C9BB2013B9AB2ED
:10443C00FB68DA84FB68DB8C9BB2002BCFD13B682A
:10444C0000937B6900224021F86800F053FD03467D
:10445C00002B01D0032306E0FB68202283F84120C7
:10446C00002300E0022318462037BD4680BD80B5EE
:10447C008AB002AFF860B9603B601346FB80002342
:10448C007B61FB6893F84230DBB2202B7CD1BB689C
:10449C00002B02D0FB88002B01D1012375E0FB68B7
:1044AC0000225A64FB68222283F84220FB68002217
:1044BC001A63FCF74DFF7861FB68FA889A85FB68F4
:1044CC00FA88DA85FB689B68B3F5805F08D1FB68D6
:1044DC001B69002B04D10023FB61BB68BB6103E0AB
:1044EC00BB68FB610023BB6143E03B6800937B69C5
:1044FC0000222021F86800F0FDFC0346002B01D0BF
:10450C00032342E0FB69002B0CD1FB681B685B6842
:10451C009BB2C3F308039AB2BB691A80BB6902331E
:10452C00BB611FE0FB689B68B3F5805F07D0FB683D
:10453C009B68002B0AD1FB681B69002B06D1FB681A
:10454C001B685B68DAB2FB691A7008E0FB681B68D1
:10455C005B68DBB203F07F03DAB2FB691A70FB69AC
:10456C000133FB61FB68DB8D9BB2013B9AB2FB68AC
:10457C00DA85FB68DB8D9BB2002BB6D1FB68202261
:10458C0083F84220002300E0022318462037BD4662
:10459C0080BD000080B58CB000AFF860B9601346E8
:1045AC00FB80FB6893F84130DBB2202B56D1BB6803
:1045BC00002B02D0FB88002B01D101234FE0BA68FD
:1045CC00FB681A62FB68FA889A84FB68FA88DA84BA
:1045DC00FB6800225A64FB68212283F84120FB68A7
:1045EC009B6B214A9A62FB689B6B204ADA62FB68E0
:1045FC009B6B1F4A1A63FB689B6B00225A6307F183
:10460C000803FB62FB68986BFB6A1968FB681B6804
:10461C0004331A46FB88FDF731F8FB681B686FF012
:10462C0040021A60FB681B681433BB61BB6953E81A
:10463C00003F7B617B6943F08003BB62FB681B68B6
:10464C001433BA6A7A623B62396A7A6A41E80023A7
:10465C00FB61FB69002BE5D1002300E00223184627
:10466C003037BD4680BD00BF4F4C0008E94C0008F8
:10467C006D4E000880B584B000AFF860B960134689
:10468C00FB80FB6893F84230DBB2202B12D1BB6865
:10469C00002B02D0FB88002B01D101230BE0FB681F
:1046AC0000221A63FB881A46B968F86800F090FC7F
:1046BC00034600E0022318461037BD4680BD0000BB
:1046CC0080B5BAB000AF78607B681B681B68C7F810
:1046DC00E4307B681B68DB68C7F8E0307B681B68DC
:1046EC005B69C7F8DC300023C7F8D8300023C7F863
:1046FC00D430D7F8E43003F00F03C7F8D830D7F82C
:10470C00D830002B0FD1D7F8E43003F02003002B66
:10471C0009D0D7F8E03003F02003002B03D07868E1
:10472C0000F0F4FD5BE2D7F8D830002B00F0DE800F
:10473C00D7F8DC3003F00103002B06D1D7F8E030BA
:10474C0003F49073002B00F0D180D7F8E43003F021
:10475C000103002B0BD0D7F8E03003F48073002B4F
:10476C0005D07B685B6C43F001027B685A64D7F818
:10477C00E43003F00403002B0BD0D7F8DC3003F04B
:10478C000103002B05D07B685B6C43F002027B6855
:10479C005A64D7F8E43003F00203002B0BD0D7F89F
:1047AC00DC3003F00103002B05D07B685B6C43F01D
:1047BC0004027B685A64D7F8E43003F00803002B3A
:1047CC0011D0D7F8E03003F02003002B05D1D7F837
:1047DC00DC3003F00103002B05D07B685B6C43F0ED
:1047EC0008027B685A647B685B6C002B00F0F281DA
:1047FC00D7F8E43003F02003002B08D0D7F8E030D2
:10480C0003F02003002B02D0786800F07FFD7B685A
:10481C001B685B6903F04003002B14BF01230023CA
:10482C00DBB2C7F8D4307B685B6C03F00803002B59
:10483C0003D1D7F8D430002B4FD0786800F089FC26
:10484C007B681B685B6903F04003002B41D07B68DD
:10485C001B681433C7F89C30D7F89C3053E8003FE2
:10486C00C7F89830D7F8983023F04003C7F8D03009
:10487C007B681B681433D7F8D020C7F8A820C7F87A
:10488C00A430D7F8A410D7F8A82041E80023C7F823
:10489C00A030D7F8A030002BD9D17B68DB6B002B74
:1048AC0013D07B68DB6B7E4A5A637B68DB6B1846E4
:1048BC00FCF780FF0346002B16D07B68DB6B5B6B31
:1048CC007A68D26B104698470EE0786800F0A5F92C
:1048DC000AE0786800F0A1F906E0786800F09DF92C
:1048EC007B6800225A6475E100BF73E17B681B6B27
:1048FC00012B40F04F81D7F8E43003F01003002B6C
:10490C0000F04881D7F8E03003F01003002B00F0E2
:10491C0041810023BB607B681B681B68BB607B68A4
:10492C001B685B68BB60BB687B681B685B6903F0DA
:10493C004003002B00F0B6807B68DB6B1B685B6868
:10494C00A7F8BE30B7F8BE30002B00F045817B686D
:10495C009B8DB7F8BE209A4280F03E817B68B7F8F9
:10496C00BE20DA857B68DB6B9B69202B00F088808E
:10497C007B681B680C33C7F88830D7F8883053E84D
:10498C00003FC7F88430D7F8843023F48073C7F81D
:10499C00B8307B681B680C33D7F8B820C7F8942064
:1049AC00C7F89030D7F89010D7F8942041E800233E
:1049BC00C7F88C30D7F88C30002BD9D17B681B68AA
:1049CC0014337B677B6F53E8003F3B673B6F23F0EF
:1049DC000103C7F8B4307B681B681433D7F8B420D4
:1049EC00C7F88020FB67F96FD7F8802041E80023D7
:1049FC00BB67BB6F002BE1D17B681B6814333B6634
:104A0C003B6E53E8003FFB65FB6D23F04003C7F89A
:104A1C00B0307B681B681433D7F8B020FA66BB66DD
:104A2C00B96EFA6E41E800237B667B6E002BE3D1F6
:104A3C007B68202283F842207B6800221A637B6803
:104A4C001B680C33FB64FB6C53E8003FBB64BB6C12
:104A5C0023F01003C7F8AC307B681B680C33D7F815
:104A6C00AC20BA657B65796DBA6D41E800233B6576
:104A7C003B6D002BE3D17B68DB6B1846FCF75EFECD
:104A8C007B6802225A637B689A8D7B68DB8D9BB2B4
:104A9C00D31A9BB21946786800F0C8F89CE000BFA6
:104AAC00235200087B689A8D7B68DB8D9BB2D31AEE
:104ABC00A7F8CE307B68DB8D9BB2002B00F08E808C
:104ACC00B7F8CE30002B00F089807B681B680C3364
:104ADC00BB63BB6B53E8003F7B637B6B23F490732E
:104AEC00C7F8C8307B681B680C33D7F8C8207A64C9
:104AFC003B64396C7A6C41E80023FB63FB6B002B45
:104B0C00E3D17B681B6814337B627B6A53E8003FFC
:104B1C003B623B6A23F00103C7F8C4307B681B6817
:104B2C001433D7F8C4203A63FB62F96A3A6B41E854
:104B3C000023BB62BB6A002BE3D17B68202283F885
:104B4C0042207B6800221A637B681B680C333B6134
:104B5C003B6953E8003FFB60FB6823F01003C7F888
:104B6C00C0307B681B680C33D7F8C020FA61BB617E
:104B7C00B969FA6941E800237B617B69002BE3D1B9
:104B8C007B6802225A63B7F8CE301946786800F079
:104B9C004DF823E0D7F8E43003F08003002B09D064
:104BAC00D7F8E03003F08003002B03D0786800F0D6
:104BBC0046FB14E0D7F8E43003F04003002B0ED092
:104BCC00D7F8E03003F04003002B08D0786800F0F1
:104BDC0085FB04E000BF02E000BF00E000BFE83747
:104BEC00BD4680BD80B483B000AF786000BF0C3789
:104BFC00BD4680BC704780B483B000AF786000BF06
:104C0C000C37BD4680BC704780B483B000AF786071
:104C1C0000BF0C37BD4680BC704780B483B000AF7A
:104C2C00786000BF0C37BD4680BC704780B483B041
:104C3C0000AF78600B467B8000BF0C37BD4680BC54
:104C4C00704780B590B000AF78607B685B6AFB639F
:104C5C007B681B681B6803F02003002B37D1FB6BB0
:104C6C000022DA84FB6B1B6814337B627B6A53E88B
:104C7C00003F3B623B6A23F08003BB63FB6B1B680A
:104C8C001433BA6B3A63FB62F96A3A6B41E800235E
:104C9C00BB62BB6A002BE5D1FB6B1B680C333B6121
:104CAC003B6953E8003FFB60FB6843F040037B63C8
:104CBC00FB6B1B680C337A6BFA61BB61B969FA69DF
:104CCC0041E800237B617B69002BE5D102E0F86BA6
:104CDC00FFF788FF00BF4037BD4680BD80B584B06C
:104CEC0000AF78607B685B6AFB60F868FFF783FF56
:104CFC0000BF1037BD4680BD80B59CB000AF78605A
:104D0C007B685B6AFB667B681B681B6803F020038F
:104D1C00002B72D1FB6E0022DA85FB6E1B680C3304
:104D2C00FB64FB6C53E8003FBB64BB6C23F48073E7
:104D3C00BB66FB6E1B680C33BA6EBA657B65796D0E
:104D4C00BA6D41E800233B653B6D002BE5D1FB6E52
:104D5C001B681433BB63BB6B53E8003F7B637B6BFB
:104D6C0023F001037B66FB6E1B6814337A6E7A6446
:104D7C003B64396C7A6C41E80023FB63FB6B002BC2
:104D8C00E5D1FB6E1B6814337B627B6A53E8003FF2
:104D9C003B623B6A23F040033B66FB6E1B6814339B
:104DAC003A6E3A63FB62F96A3A6B41E80023BB62E4
:104DBC00BB6A002BE5D1FB6E202283F84220FB6EF0
:104DCC001B6B012B19D1FB6E1B680C333B613B69D0
:104DDC0053E8003FFB60FB6823F01003FB65FB6EA0
:104DEC001B680C33FA6DFA61BB61B969FA6941E869
:104DFC0000237B617B69002BE5D1FB6E00225A639B
:104E0C00FB6E1B6B012B06D1FB6E9B8D1946F86E4E
:104E1C00FFF70CFF02E0F86EFBF72EFD00BF7037BA
:104E2C00BD4680BD80B584B000AF78607B685B6A9E
:104E3C00FB60FB6801225A63FB681B6B012B08D1DA
:104E4C00FB689B8D5B089BB21946F868FFF7EEFE7A
:104E5C0002E0F868FFF7D8FE00BF1037BD4680BDF2
:104E6C0080B584B000AF78600023FB607B685B6A20
:104E7C00BB60BB681B685B6903F08003002B14BF2D
:104E8C0001230023DBB2FB60BB6893F84130DBB23B
:104E9C00212B08D1FB68002B05D0BB680022DA84DB
:104EAC00B86800F02FF9BB681B685B6903F040031E
:104EBC00002B14BF01230023DBB2FB60BB6893F80B
:104ECC004230DBB2222B08D1FB68002B05D0BB682B
:104EDC000022DA85B86800F03CF9BB685B6C43F0E3
:104EEC001002BB685A64B868FFF797FE00BF103712
:104EFC00BD4680BD80B590B000AFF860B9603B6036
:104F0C001346FB7150E0BB6CB3F1FF3F4CD0BB6C54
:104F1C00002B07D0FCF71CFA02463B68D31ABA6C7C
:104F2C009A4241D2FB681B680C33BB62BB6A53E8E4
:104F3C00003F7B627B6A23F4D073FB63FB681B68C6
:104F4C000C33FA6B7A633B63396B7A6B41E8002361
:104F5C00FB62FB6A002BE5D1FB681B6814337B6199
:104F6C007B6953E8003F3B613B6923F00103BB6362
:104F7C00FB681B681433BA6B3A62FB61F9693A6AD5
:104F8C0041E80023BB61BB69002BE5D1FB68202203
:104F9C0083F84120FB68202283F84220FB68002222
:104FAC0083F8402003230FE0FB681B681A68BB687A
:104FBC001340BA689A420CBF01230023DBB21A4695
:104FCC00FB799A429FD0002318464037BD4680BDDE
:104FDC0080B598B000AFF860B9601346FB80BA6832
:104FEC00FB689A62FB68FA889A85FB6800225A640F
:104FFC00FB68222283F84220FB68DB6B3E4A9A62F4
:10500C00FB68DB6B3D4ADA62FB68DB6B3C4A1A637C
:10501C00FB68DB6B00225A6307F10803FB65FB6836
:10502C00D86BFB681B6804331946FB6D1A68FB8848
:10503C00FCF724FB00233B61FB681B681B683B618E
:10504C00FB681B685B683B613B69FB681B69002B59
:10505C0019D0FB681B680C333B643B6C53E8003F76
:10506C00FB63FB6B43F48073BB65FB681B680C3301
:10507C00BA6DFA64BB64B96CFA6C41E800237B64CA
:10508C007B6C002BE5D1FB681B681433FB62FB6A5D
:10509C0053E8003FBB62BB6A43F001037B65FB68CE
:1050AC001B6814337A6DBA637B63796BBA6B41E816
:1050BC0000233B633B6B002BE5D1FB681B6814336F
:1050CC00BB61BB6953E8003F7B617B6943F04003E4
:1050DC003B65FB681B6814333A6D7A623B62396A34
:1050EC007A6A41E80023FB61FB69002BE5D10023C0
:1050FC0018466037BD4680BD054D0008314E00088E
:10510C006D4E000880B489B000AF78607B681B6876
:10511C000C33FB60FB6853E8003FBB60BB6823F0BB
:10512C00C003FB617B681B680C33FA69BA617B6155
:10513C007969BA6941E800233B613B69002BE5D1F1
:10514C007B68202283F8412000BF2437BD4680BCF9
:10515C00704780B495B000AF78607B681B680C33E7
:10516C007B637B6B53E8003F3B633B6B23F4907397
:10517C00FB647B681B680C33FA6C3A64FB63F96B59
:10518C003A6C41E80023BB63BB6B002BE5D17B6819
:10519C001B6814333B623B6A53E8003FFB61FB69BD
:1051AC0023F00103BB647B681B681433BA6CFA628E
:1051BC00BB62B96AFA6A41E800237B627B6A002B06
:1051CC00E5D17B681B6B012B19D17B681B680C33F9
:1051DC00FB60FB6853E8003FBB60BB6823F0100327
:1051EC007B647B681B680C337A6CBA617B61796970
:1051FC00BA6941E800233B613B69002BE5D17B6830
:10520C00202283F842207B6800221A6300BF5437A7
:10521C00BD4680BC704780B584B000AF78607B68B9
:10522C005B6AFB60FB680022DA85FB680022DA848B
:10523C00F868FFF7F2FC00BF1037BD4680BD80B4A4
:10524C0085B000AF78607B6893F84130DBB2212BDE
:10525C003ED17B689B68B3F5805F14D17B681B697A
:10526C00002B10D17B681B6AFB60FB681B881A46FD
:10527C007B681B68C2F308025A607B681B6A9A1C25
:10528C007B681A6208E07B681B6A591C7A68116299
:10529C001A787B681B685A607B68DB8C9BB2013B7D
:1052AC009BB27A681946D184002B0FD17B681B689E
:1052BC00DA687B681B6822F08002DA607B681B6806
:1052CC00DA687B681B6842F04002DA60002300E079
:1052DC00022318461437BD4680BC704780B582B097
:1052EC0000AF78607B681B68DA687B681B6822F00B
:1052FC004002DA607B68202283F841207868FFF74F
:10530C0071FC002318460837BD4680BD80B58CB0B3
:10531C0000AF78607B6893F84230DBB2222B40F010
:10532C00AE807B689B68B3F5805F17D17B681B6987
:10533C00002B13D10023FB627B689B6ABB627B68EA
:10534C001B685B689BB2C3F308039AB2BB6A1A80F2
:10535C007B689B6A9A1C7B689A6226E07B689B6AD6
:10536C00FB620023BB627B689B68B3F5805F07D050
:10537C007B689B68002B0AD17B681B69002B06D1CC
:10538C007B681B685B68DAB2FB6A1A7008E07B68A2
:10539C001B685B68DBB203F07F03DAB2FB6A1A703E
:1053AC007B689B6A5A1C7B689A627B68DB8D9BB21C
:1053BC00013B9BB27A681946D185002B5DD17B6885
:1053CC001B68DA687B681B6822F02002DA607B6855
:1053DC001B68DA687B681B6822F48072DA607B6871
:1053EC001B685A697B681B6822F001025A617B6852
:1053FC00202283F842207B6800225A637B681B6B57
:10540C00012B35D17B6800221A637B681B680C3337
:10541C007B617B6953E8003F3B613B6923F01003E0
:10542C007B627B681B680C337A6A3A62FB61F969B0
:10543C003A6A41E80023BB61BB69002BE5D17B686C
:10544C001B681B6803F01003102B0AD10023FB60B0
:10545C007B681B681B68FB607B681B685B68FB6078
:10546C00FB687B689B8D19467868FFF7DFFB02E0D1
:10547C007868FBF701FA002302E0002300E0022326
:10548C0018463037BD4680BD80B584B000AF78601B
:10549C007B681B681B6923F440517B68DA687B6866
:1054AC001B680A431A617B689A687B681B691A43FC
:1054BC007B685B691343BB607B681B68DB6823F408
:1054CC00B05323F00C037A681268B9680B43D360AD
:1054DC007B681B685B6923F440717B689A697B6805
:1054EC001B680A435A617B681B682C4A934203D1A0
:1054FC00FEF7D8F8F86002E0FEF7C0F8F860FA683A
:10550C0013469B0013449A001A447B685B689B000B
:10551C00B2FBF3F3224AA2FB03235B091901FA68DD
:10552C0013469B0013449A001A447B685B689B00EB
:10553C00B2FBF3F21A4BA3FB02035B09642000FBE2
:10554C0003F3D31A1B013233154AA2FB03235B0965
:10555C0003F0F0031944FA6813469B0013449A00B5
:10556C001A447B685B689B00B2FBF3F20C4BA3FB09
:10557C0002035B09642000FB03F3D31A1B013233D3
:10558C00074AA2FB03235B0903F00F027B681B682D
:10559C000A449A6000BF1037BD4680BD00380140F8
:1055AC001F85EB510CB430B5174B0C1E1D689DB00C
:1055BC0008DA8B234FF0FF302B601DB0BDE8304074
:1055CC0002B070474FF40273ADF814300CBF234691
:1055DC0004F1FF33049307934FF6FF730290069088
:1055EC00ADF81630284621AB209A02A9019300F0A1
:1055FC0093F9431CBCBF8B232B60002CDDD0002205
:10560C00029B1A70D9E700BF0C000020034602442D
:10561C00934200D1704703F8011BF9E7014B18685E
:10562C00704700BF0C00002070B500260C4D0D4CCF
:10563C00641BA410A64209D100F078FC00260A4D88
:10564C000A4C641BA410A64205D170BD55F8043B4E
:10565C0098470136EEE755F8043B98470136F2E7D8
:10566C001C6000081C6000081C600008206000081A
:10567C007047704738B50546002940D051F8043CB6
:10568C000C1F002BB8BFE41800F0DEF81C4A13689E
:10569C0033B9636014602846BDE8384000F0DAB8CE
:1056AC00A34208D9206821188B4201BF19685B6896
:1056BC0009182160EDE71A465B680BB1A342FAD9D1
:1056CC0011685018A0420BD1206801445018834235
:1056DC001160E0D118685B68084410605360DAE729
:1056EC0002D90C232B60D6E7206821188B4201BF0E
:1056FC0019685B680918216063605460CBE738BD9A
:10570C00AC03002070B50F4E0C463168054611B93C
:10571C0000F0AAFB30602146284600F0A5FB431C94
:10572C0003D14FF0FF34204670BDC41C24F0030499
:10573C00A042F8D0211A284600F096FB0130F2D195
:10574C00EFE700BFA80300202DE9F843CD1C25F09E
:10575C00030508350C2D38BF0C25002D064601DB42
:10576C00A94204D90C2333600020BDE8F883DFF88C
:10577C00D48000F069F8D8F800301C4644BB2946A8
:10578C003046FFF7BFFF431C044658D1D8F8004001
:10579C002746002F43D1002C4BD023683946304686
:1057AC0004EB030900F060FB814542D121683046CF
:1057BC006D1A2946FFF7A6FF01303AD023682B4417
:1057CC002360D8F800305A6862BBC8F800700FE04C
:1057DC002268521B20D40B2A17D96119A3422560C9
:1057EC0018BF5960636808BFC8F8001062514B605D
:1057FC00304600F02FF804F10B00231D20F00700B9
:10580C00C21A1CBF1B1AA350AFE76268A3420CBF9D
:10581C00C8F800205A60EBE723466468AEE73C46C4
:10582C007F68B6E71A465B68A342FBD1002353603E
:10583C00DEE70C233046336000F00CF894E705608B
:10584C00D6E700BFAC0300200148FFF711BF00BF33
:10585C00A40300200148FFF70CBF00BFA4030020E5
:10586C002DE9F0471F468E688246BE420C46904694
:10587C000B682DD8B1F90C2012F4906F26D0656905
:10588C00096905EB4505A3EB010905EBD5757B1CF7
:10589C004B446D109D4238BF1D46530527D52946F4
:1058AC00FFF752FF064660B34A46216900F0FAFA48
:1058BC00A38923F4906343F08003A38126614E44B3
:1058CC0026603E466561A5EB0905A560BE4200D980
:1058DC003E4632464146206800F0ACFA0020A368F0
:1058EC009B1BA360236833442360BDE8F0872A46E2
:1058FC0000F0E6FA06460028E0D150462169FFF791
:10590C00B9FE0C23CAF80030A3894FF0FF3043F0E6
:10591C004003A381E9E700002DE9F04F98468B89FD
:10592C0007461B060D4614469DB010D50B6973B97E
:10593C004021FFF709FF2860286130B90C233B6038
:10594C004FF0FF301DB0BDE8F08F40236B6100239A
:10595C00099320238DF8293030234FF00109CDF81D
:10596C000C80DFF898818DF82A3023469A4613F87C
:10597C00012B0AB1252AF9D1BAEB040B0BD05B46EB
:10598C00224629463846FFF76BFF013000F0A7800E
:10599C00099A5A4409929AF80030002B00F09F8023
:1059AC0000234FF0FF32CDE905230AF1010A0493DD
:1059BC0007938DF853301A935446052214F8011BA3
:1059CC004E4800F061FA049AD8B9D00644BF20239F
:1059DC008DF85330110744BF2B238DF853309AF8B0
:1059EC0000302A2B15D0544600204FF00A0C079A91
:1059FC00214611F8013B303B092B4BD9B0B1079232
:105A0C0014E0A0EB080309FA03F31343A246049332
:105A1C00D2E7039B191D1B680391002BBBBF5B4294
:105A2C0042F0020207930793B8BF049223782E2BFF
:105A3C000AD163782A2B32D1039B02341A1D1B68BE
:105A4C00039243EAE3730593DFF8B4A003225046B4
:105A5C00217800F019FA38B14022049BA0EB0A001F
:105A6C00824013430134049314F8011B0622254889
:105A7C008DF8281000F008FA002836D0224B1BBBFA
:105A8C00039B073323F0070308330393099B334429
:105A9C0009936AE70C4601200CFB0232A8E70023AD
:105AAC004FF00A0C194601340593204610F8012BCF
:105ABC00303A092A03D9002BC6D00591C4E7044615
:105ACC0001230CFB0121F0E703AB00932A46384677
