:020000040800F2
:100000000028002099130008C9120008D112000826
:10001000D9120008E1120008E912000800000000EF
:10002000000000000000000000000000F1120008C5
:10003000FD12000800000000091300081513000855
:10004000E1130008E1130008E1130008E1130008C0
:10005000E1130008E1130008E1130008E1130008B0
:10006000E1130008E1130008E1130008E1130008A0
:10007000E1130008E1130008E1130008E113000890
:10008000E1130008E1130008E1130008E113000880
:10009000E1130008E1130008E1130008E113000870
:1000A000E1130008E1130008E1130008E113000860
:1000B000E1130008E113000800000000E11300084C
:1000C000E11300080000000000000000E113000838
:1000D00000000000E1130008E11300080000000028
:1000E000E1130008E1130008E1130008000000001C
:1000F0000000000000000000000000000000000000
:0C01000000000000000000005FF808F1A3
:10010C0010B5054C237833B9044B13B10448AFF345
:10011C0000800123237010BD70000020000000003F
:10012C008C34000808B5034B1BB103490348AFF3EB
:10013C00008008BD00000000740000208C34000812
:10014C00034613F8012B002AFBD1181A013870470B
:10015C0080F0004002E000BF81F0004142001FBF70
:10016C005FEA410392EA030F7FEA226C7FEA236C79
:10017C006AD04FEA1262D2EB1363C1BFD21841406E
:10018C0048404140B8BF5B42192B88BF704710F004
:10019C00004F40F4000020F07F4018BF404211F0A7
:1001AC00004F41F4000121F07F4118BF494292EA0F
:1001BC00030F3FD0A2F1010241FA03FC10EB0C003B
:1001CC00C3F1200301FA03F100F0004302D54942C8
:1001DC0060EB4000B0F5000F13D3B0F1807F06D375
:1001EC0040084FEA310102F10102FE2A51D2B1F16D
:1001FC00004F40EBC25008BF20F0010040EA030062
:10020C007047490040EB0000013A28BFB0F5000FE1
:10021C00EDD2B0FA80FCACF1080CB2EB0C0200FA97
:10022C000CF0AABF00EBC25052421843BCBFD040E6
:10023C001843704792F0000F81F4000106BF80F460
:10024C0000000132013BB5E74FEA41037FEA226C23
:10025C0018BF7FEA236C21D092EA030F04D092F0EE
:10026C00000F08BF0846704790EA010F1CBF002022
:10027C00704712F07F4F04D1400028BF40F000407F
:10028C00704712F100723CBF00F50000704700F09F
:10029C00004343F0FE4040F4000070477FEA2262C6
:1002AC0016BF08467FEA23630146420206BF5FEA97
:1002BC00412390EA010F40F4800070474FF0000397
:1002CC0004E000BF10F0004348BF40425FEA000C5E
:1002DC0008BF704743F0964301464FF000001CE006
:1002EC0050EA010208BF70474FF000030AE000BF5C
:1002FC0050EA010208BF704711F0004302D540429A
:10030C0061EB41015FEA010C02BF8446014600200B
:10031C0043F0B64308BFA3F18053A3F50003BCFA26
:10032C008CF2083AA3EBC25310DB01FA02FC6344D3
:10033C0000FA02FCC2F12002BCF1004F20FA02F2DA
:10034C0043EB020008BF20F00100704702F12002CD
:10035C0001FA02FCC2F1200250EA4C0021FA02F22E
:10036C0043EB020008BF20EADC7070474FF0FF0C33
:10037C001CEAD0521EBF1CEAD15392EA0C0F93EA2E
:10038C000C0F6FD01A4480EA010C400218BF5FEAD0
:10039C0041211ED04FF0006343EA501043EA511143
:1003AC00A0FB01310CF00040B1F5000F3EBF49003D
:1003BC0041EAD3715B0040EA010062F17F02FD2A41
:1003CC001DD8B3F1004F40EBC25008BF20F0010024
:1003DC00704790F0000F0CF0004C08BF49024CEA3B
:1003EC00502040EA51207F3AC2BFD2F1FF0340EACD
:1003FC00C250704740F400004FF00003013A5DDC3E
:10040C0012F1190FDCBF00F000407047C2F100027E
:10041C00410021FA02F1C2F1200200FA02FC5FEA6B
:10042C00310040F1000053EA4C0308BF20EADC70B5
:10043C00704792F0000F00F0004C02BF400010F427
:10044C00000F013AF9D040EA0C0093F0000F01F0D4
:10045C00004C02BF490011F4000F013BF9D041EAF6
:10046C000C018FE70CEAD15392EA0C0F18BF93EAF8
:10047C000C0F0AD030F0004C18BF31F0004CD8D122
:10048C0080EA010000F00040704790F0000F17BFA9
:10049C0090F0004F084691F0000F91F0004F14D0EF
:1004AC0092EA0C0F01D142020FD193EA0C0F03D147
:1004BC004B0218BF084608D180EA010000F000404A
:1004CC0040F0FE4040F40000704740F0FE4040F425
:1004DC00400070474FF0FF0C1CEAD0521EBF1CEAC4
:1004EC00D15392EA0C0F93EA0C0F69D0A2EB0302E2
:1004FC0080EA010C49024FEA402037D04FF080537C
:10050C0043EA111143EA10130CF000408B4238BF40
:10051C005B0042F17D024FF4000C8B4224BF5B1A4E
:10052C0040EA0C00B3EB510F24BFA3EB510340EA9C
:10053C005C00B3EB910F24BFA3EB910340EA9C004A
:10054C00B3EBD10F24BFA3EBD10340EADC001B01BA
:10055C0018BF5FEA1C1CE0D1FD2A3FF650AF8B425E
:10056C0040EBC25008BF20F0010070470CF0004C6B
:10057C004CEA50207F32C2BFD2F1FF0340EAC25096
:10058C00704740F400004FF00003013A37E792F057
:10059C00000F00F0004C02BF400010F4000F013AB5
:1005AC00F9D040EA0C0093F0000F01F0004C02BFB0
:1005BC00490011F4000F013BF9D041EA0C0195E719
:1005CC000CEAD15392EA0C0F08D142027FF47DAFB2
:1005DC0093EA0C0F7FF470AF084676E793EA0C0FA2
:1005EC0004D14B023FF44CAF08466EE730F0004CA0
:1005FC0018BF31F0004CCAD130F000427FF45CAF30
:10060C0031F000437FF43CAF5FE700BF4FEA40029C
:10061C00B2F1FE4F0FD34FF09E03B3EB12620DD924
:10062C004FEA002343F0004310F0004F23FA02F08E
:10063C0018BF404270474FF00000704712F1610F35
:10064C0001D1420205D110F0004008BF6FF000400C
:10065C0070474FF00000704780B485B000AF7860F1
:10066C000B46FB700023FB7322E07B685A1C7A60FC
:10067C001B78BB7308237B7317E0FA7BBB7B53405F
:10068C00DBB203F001033B73FB7B5B08FB733B7B2F
:10069C00002B04D0FB7B83F07303DB43FB73BB7B2E
:1006AC005B08BB737B7B013B7B737B7B002BE4D1B7
:1006BC00FB785A1EFA70002BD7D1FB7B18461437E7
:1006CC00BD4680BC704790B587B000AFF860B9608C
:1006DC007A60FB685B78002B01D1012344E0FB6856
:1006EC005B683A7A1146184600F04EFC7B7A002B78
:1006FC0026D00023FB750CE0FB685868FB7D7A68FC
:10070C00D418FF2100F040FC03462370FB7D01331D
:10071C00FB757B7AFA7D9A42EED37B7A013BDBB296
:10072C0019467868FFF798FF03467B757B7A013B87
:10073C007A6813441B787A7D9A4214D0012313E013
:10074C000023BB750BE0FB685868BB7D7A681344CB
:10075C001B78194600F018FCBB7D0133BB75BB7AC6
:10076C00BA7D9A42EFD3002318461C37BD4690BD84
:10077C0080B584B000AF78607B685B680121184657
:10078C0000F0E0FB0346FB7307E07B685B6801212C
:10079C00184600F0D7FB0346FB73FB7BFF2BF4D111
:1007AC0000BF00BF1037BD4680BD000080B584B0CF
:1007BC0000AF78600B46FB7007F10A031C491A4620
:1007CC0009687868FFF77FFF0346FB72FB78012B03
:1007DC0002D17868FFF7CCFFFB78022B23D14FF4C2
:1007EC007A73FB607B681B7C7F2B14D07F2B16DC11
:1007FC005F2B0CD05F2B12DC1F2B02D03F2B03D0B6
:10080C000DE05E23FB600BE0BC23FB6008E040F2D4
:10081C007713FB6004E040F2EE23FB6000E000BFC6
:10082C00F86800F03BFEFB7A18461037BD4680BDD9
:10083C001000002080B586B000AF786007F1080387
:10084C0038491A4609687868FFF73DFF03467B75FF
:10085C007B7D002B01D07B7D60E0BA7A7B68DA73FC
:10086C00FA7A7B689A733A7B7B681A747B7A1B02E0
:10087C001AB23B7A1BB213431BB2FB82FB8A23F4E2
:10088C00FF6323F007037B827B8A002B02D0FB8A59
:10089C005B42FB827B681B7C7F2B1DD07F2B20DC7B
:1008AC005F2B12D05F2B1CDC1F2B02D03F2B05D0F3
:1008BC0017E0FB8A03F4FF63FB8217E0FB8A23F04B
:1008CC0003035B055B0DFB8210E0FB8A23F0010345
:1008DC005B055B0DFB8209E0FB8AC3F30A03FB8219
:1008EC0004E0FB8AC3F30A03FB8200BFFB8A1846B1
:1008FC00FFF7E4FC03464FF076511846FFF736FD40
:10090C0003461A467B685A617B8A002B05D07B68AC
:10091C005B6983F000427B685A61002318461837E4
:10092C00BD4680BD0800002080B584B000AF786063
:10093C0039600F4B3A6819687868FFF7C4FE0346B4
:10094C00FB73FB7B002B01D0FB7B0CE03B681A7824
:10095C007B68DA733B685A787B689A733B689A7841
:10096C007B681A74FB7B18461037BD4680BD00BFF0
:10097C000C00002080B584B000AF78607B681B78D9
:10098C00002B01D1012312E07B685B68184600F054
:10099C0031FB0346FB73FB7B002B04D17B680122EC
:1009AC005A70002303E07B6800225A70012318461A
:1009BC001037BD4680BD000080B586B000AF7860B2
:1009CC0007F10C0312491A4609687868FFF77BFE99
:1009DC000346BB75BB7D002B01D0BB7D14E000230F
:1009EC00FB750DE0FB7D5A1CFB7D18323A4412F866
:1009FC000C1C7A6813440A461A72FB7D0133FB7592
:100A0C00FB7D052BEED9002318461837BD4680BD5B
:100A1C000000002080B584B000AF786007F10E03B1
:100A2C0008491A4609687868FFF74DFE0346FB73C0
:100A3C00FB7B002B01D0FB7B00E00023184610371A
:100A4C00BD4680BD04000020B0B596B000AF354B5C
:100A5C0007F144041D460FCD0FC42B681A462280A3
:100A6C0002341B0C237000F0B7FC00F063F800F0AC
:100A7C0055F900F0FFF800F099F800F0C5F800F017
:100A8C0023F92948FFF776FF2748FFF795FF2648FB
:100A9C00FFF7D0FE244BDB7B3B70234B9B7B7B70A7
:100AAC007F23BB702048FFF765FF1F48FFF7B2FF9D
:100ABC003B4619461C48FFF737FF07F144016423F6
:100ACC0012221A4801F006FE1748FFF753FF16488A
:100ADC00FFF7A0FF01211448FFF768FE1248FFF74B
:100AEC0049FF1148FFF796FF0F48FFF7A3FE0E4B87
:100AFC005B691846FFF78AFD03461BB2381D0C4A8A
:100B0C00402101F0F9FF3B1D1846FFF719FB034686
:100B1C009AB2391D4FF0FF33044801F0DBFD00BFE2
:100B2C00D2E700BFBC340008C80100203801002007
:100B3C00A834000880B590B000AF07F11803282244
:100B4C000021184602F00CF83B1D00221A605A6076
:100B5C009A60DA601A610223BB610123BB62102325
:100B6C00FB6200237B6307F11803184601F076F84B
:100B7C000346002B01D000F025F90F237B600023E6
:100B8C00BB600023FB6000233B6100237B613B1DAA
:100B9C000021184601F0E4FA0346002B01D000F0C6
:100BAC0011F900BF4037BD4680BD000080B500AFD5
:100BBC00124B134A1A60114B124A5A600F4B002207
:100BCC009A600E4B0022DA600C4B4FF480421A6193
:100BDC000A4B00225A61094B00229A61074B0022F2
:100BEC00DA61064B00221A62044800F0F3FE034659
:100BFC00002B01D000F0E6F800BF80BD8C00002077
:100C0C0000540040A086010080B500AF174B184A75
:100C1C001A60164B4FF482725A60144B00229A6081
:100C2C00124B0022DA60114B00221A610F4B00228A
:100C3C005A610E4B4FF400729A610C4B0022DA6130
:100C4C000A4B00221A62094B00225A62074B0022FF
:100C5C009A62064B0A22DA62044801F00FFC034642
:100C6C00002B01D000F0AEF800BF80BDE0000020EA
:100C7C000030014080B500AF114B124A1A60104B86
:100C8C004FF4E1325A600E4B00229A600C4B00225A
:100C9C00DA600B4B00221A61094B0C225A61084B8B
:100CAC0000229A61064B0022DA61054801F06AFCC9
:100CBC000346002B01D000F085F800BF80BD00BFBB
:100CCC00380100200038014080B500AF114B124AAA
:100CDC001A60104B4FF4E1325A600E4B00229A60AE
:100CEC000C4B0022DA600B4B00221A61094B0C22D0
:100CFC005A61084B00229A61064B0022DA610548C2
:100D0C0001F090FC0346002B01D000F05BF800BF13
:100D1C0080BD00BF800100200044004080B586B03B
:100D2C0000AF07F1080300221A605A609A60DA607B
:100D3C00214B9B69204A43F0040393611E4B9B6932
:100D4C0003F004037B607B681B4B9B691A4A43F0DE
:100D5C0008039361184B9B6903F008033B603B68E5
:100D6C0000224FF48071154800F01CFE0022202157
:100D7C00134800F017FE4FF48073BB600123FB6037
:100D8C0000233B6102237B6107F1080319460B48E2
:100D9C0000F08CFC2023BB600123FB6000233B6133
:100DAC0002237B6107F108031946054800F07EFC1D
:100DBC0000BF1837BD4680BD00100240000801403E
:100DCC00000C014080B400AF72B600BF00BFFDE75D
:100DDC0080B584B000AF786039600023FB607B681D
:100DEC003A685A607B681B68544A934203D101F0FD
:100DFC0013FBF86002E001F0FBFAF8607B68DB693A
:100E0C00002B4CD1FA6813469B0013449A001A44E9
:100E1C007B685B685B00B2FBF3F3494AA2FB0323DC
:100E2C005B091901FA6813469B0013449A001A4493
:100E3C007B685B685B00B2FBF3F2414BA3FB0203E4
:100E4C005B09642000FB03F3D31ADB0032333C4A0A
:100E5C00A2FB03235B095B0003F4F8731944FA68E3
:100E6C0013469B0013449A001A447B685B685B0032
:100E7C00B2FBF3F2324BA3FB02035B09642000FBD1
:100E8C0003F3D31ADB0032332D4AA2FB03235B0995
:100E9C0003F007027B681B680A449A604AE0FA6810
:100EAC0013469B0013449A001A447B685B689B00B2
:100EBC00B2FBF3F3224AA2FB03235B091901FA6884
:100ECC0013469B0013449A001A447B685B689B0092
:100EDC00B2FBF3F21A4BA3FB02035B09642000FB89
:100EEC0003F3D31A1B013233154AA2FB03235B090C
:100EFC0003F0F0031944FA6813469B0013449A005C
:100F0C001A447B685B689B00B2FBF3F20C4BA3FBAF
:100F1C0002035B09642000FB03F3D31A1B01323379
:100F2C00074AA2FB03235B0903F00F027B681B68D3
:100F3C000A449A6000BF1037BD4680BD003801409E
:100F4C001F85EB5180B584B000AF78600B46FB7009
:100F5C00FF23FB730023BB73FB78002B01D1002311
:100F6C00FB7307F10F010A230122786801F0B2FB31
:100F7C0007F10E010A230122786801F02EFCBB7BDD
:100F8C0018461037BD4680BD80B584B000AF786080
:100F9C000B46FB700023FB730023BB7322E0FA7833
:100FAC00BB7B42FA03F3DBB203F001033B73002378
:100FBC007B733B7B19467868FFF7C4FF0346FB72D3
:100FCC00FB7AFF2B01D101237B737A7BBB7B02FA6B
:100FDC0003F35AB297F90F3013435BB2FB73BB7B2D
:100FEC000133BB73BB7B072BD9D9FB7B184610375E
:100FFC00BD4680BD80B584B000AF78600023FB7324
:10100C00F023BB7300237B734FF4E1317868FFF757
:10101C00DFFE07F10E010A230122786801F05AFB6A
:10102C0007F10D010A230122786801F0D6FB4FF479
:10103C00E1317868FFF7CCFE7A7BBB7B9A4201D119
:10104C000123FB73FB7B18461037BD4680BD0000A7
:10105C0080B485B000AF154B9B69144A43F0010373
:10106C009361124B9B6903F00103BB60BB680F4B90
:10107C00DB690E4A43F08053D3610C4BDB6903F000
:10108C0080537B607B680A4B5B68FB60FB6823F0DA
:10109C00E063FB60FB6843F00073FB60044AFB6891
:1010AC00536000BF1437BD4680BC7047001002402F
:1010BC000000014080B588B000AF786007F11003E4
:1010CC0000221A605A609A60DA607B681B68164AC4
:1010DC00934225D1154B9B69144A43F00803936145
:1010EC00124B9B6903F00803FB60FB68C0233B6158
:1010FC0012237B610023BB610323FB6107F1100307
:10110C0019460B4800F0D2FA084BDB69074A43F446
:10111C000013D361054BDB6903F40013BB60BB68A0
:10112C0000BF2037BD4680BD005400400010024077
:10113C00000C014080B588B000AF786007F1100357
:10114C0000221A605A609A60DA607B681B681B4A3E
:10115C0093422FD11A4B9B69194A43F480539361E4
:10116C00174B9B6903F48053FB60FB68144B9B6922
:10117C00134A43F004039361114B9B6903F004037E
:10118C00BB60BB68A0233B6102237B610323FB6133
:10119C0007F1100319460B4800F088FA40233B6115
:1011AC0000237B610023BB6107F11003194605483E
:1011BC0000F07CFA00BF2037BD4680BD00300140F6
:1011CC00001002400008014080B58AB000AF786082
:1011DC0007F1180300221A605A609A60DA607B6883
:1011EC001B68324A934232D1314B9B69304A43F4EB
:1011FC00804393612E4B9B6903F480437B617B6935
:10120C002B4B9B692A4A43F004039361284B9B693F
:10121C0003F004033B613B694FF40073BB61022391
:10122C00FB6103237B6207F118031946214800F088
:10123C003DFA4FF48063BB610023FB6100233B62EA
:10124C0007F1180319461B4800F030FA2AE07B68B6
:10125C001B68194A934225D1154BDB69144A43F498
:10126C000033D361124BDB6903F40033FB60FB6882
:10127C000F4B9B690E4A43F0040393610C4B9B6923
:10128C0003F00403BB60BB680423BB611223FB6146
:10129C0001233B6203237B6207F1180319460548BF
:1012AC0000F004FA00BF2837BD4680BD003801406D
:1012BC0000100240000801400044004080B400AF20
:1012CC0000BFFDE780B400AF00BFFDE780B400AF06
:1012DC0000BFFDE780B400AF00BFFDE780B400AFF6
:1012EC0000BFFDE780B400AF00BFBD4680BC7047B7
:1012FC0080B400AF00BFBD4680BC704780B400AF67
:10130C0000BFBD4680BC704780B500AF00F0AAF8A6
:10131C0000BF80BD80B586B000AF7860144A154B15
:10132C00D31A7B617B693B61134B1B68002B02D189
:10133C00114B124A1A60104B1A687B6813443A69B5
:10134C009A4207D201F014FC03460C221A604FF0AB
:10135C00FF3309E0084B1B68FB60074B1A687B687E
:10136C001344054A1360FB6818461837BD4680BD08
:10137C000028002000040000E001002030030020C1
:10138C0080B400AF00BFBD4680BC7047FFF7F8FFCC
:10139C000B480C490C4A002302E0D458C4500433C7
:1013AC00C4188C42F9D3094A094C002301E013609C
:1013BC000432A242FBD301F0E1FBFFF745FB70477F
:1013CC000000002070000020403500087000002054
:1013DC0030030020FEE7000080B500AF084B1B680F
:1013EC00074A43F010031360032000F02BF90F2081
:1013FC0000F008F8FFF72CFE0023184680BD00BF54
:10140C000020024080B582B000AF7860124B1A68A1
:10141C00124B1B7819464FF47A73B3FBF1F3B2FB02
:10142C00F3F3184600F035F90346002B01D00123E5
:10143C000EE07B680F2B0AD8002279684FF0FF3042
:10144C0000F00BF9064A7B681360002300E00123CF
:10145C0018460837BD4680BD140000201C00002033
:10146C001800002080B400AF054B1B781A46054BC2
:10147C001B681344034A136000BFBD4680BC704711
:10148C001C000020E401002080B400AF024B1B685C
:10149C001846BD4680BC7047E401002080B584B07E
:1014AC0000AF7860FFF7F0FFB8607B68FB60FB680B
:1014BC00B3F1FF3F05D00A4B1B781A46FB68134467
:1014CC00FB6000BFFFF7E0FF0246BB68D31AFA6867
:1014DC009A42F7D800BF00BF1037BD4680BD00BF91
:1014EC001C00002080B485B000AF78607B6803F0EE
:1014FC000703FB600C4BDB68BB60BA684FF6FF035D
:10150C001340BB60FB681A02BB68134343F0BF6314
:10151C0043F40033BB60044ABB68D36000BF14378C
:10152C00BD4680BC704700BF00ED00E080B400AF4A
:10153C00044BDB681B0A03F007031846BD4680BC4E
:10154C00704700BF00ED00E080B483B000AF0346ED
:10155C003960FB7197F90730002B0ADB3B68DAB274
:10156C000C4997F907301201D2B20B4483F80023CF
:10157C000AE03B68DAB20849FB7903F00F03043B3D
:10158C001201D2B20B441A7600BF0C37BD4680BC98
:10159C00704700BF00E100E000ED00E080B489B0CE
:1015AC0000AFF860B9607A60FB6803F00703FB6179
:1015BC00FB69C3F10703042B28BF0423BB61FB6940
:1015CC000433062B02D9FB69033B00E000237B614B
:1015DC004FF0FF32BB6902FA03F3DA43BB681A40DF
:1015EC007B699A404FF0FF317B6901FA03F3D943D1
:1015FC007B680B40134318462437BD4680BC7047AC
:10160C0080B582B000AF78607B68013BB3F1807F1E
:10161C0001D301230FE00A4A7B68013B53600F2181
:10162C004FF0FF30FFF790FF054B00229A60044B00
:10163C0007221A60002318460837BD4680BD00BF3C
:10164C0010E000E080B582B000AF78607868FFF7FA
:10165C0049FF00BF0837BD4680BD80B586B000AFDE
:10166C000346B9607A60FB7300237B61FFF75EFF72
:10167C0078617A68B9687869FFF790FF024697F944
:10168C000F3011461846FFF75FFF00BF1837BD46F5
:10169C0080BD80B582B000AF78607868FFF7B0FF8E
:1016AC00034618460837BD4680BD000080B48BB099
:1016BC0000AF7860396000237B6200233B6261E1FC
:1016CC0001227B6A02FA03F3FB613B681B68FA692F
:1016DC001340BB61BA69FB699A4240F050813B6888
:1016EC005B68974A93425ED0954A934275D8954A67
:1016FC00934258D0934A93426FD8934A934252D014
:10170C00914A934269D8914A93424CD08F4A934262
:10171C0063D88F4A934246D08D4A93425DD8122BA0
:10172C002AD8122B59D801A252F823F0B31700086B
:10173C008D1700089F170008E1170008E71700082D
:10174C00E7170008E7170008E7170008E717000875
:10175C00E7170008E7170008E7170008E717000865
:10176C00E7170008E7170008E7170008E717000855
:10177C0095170008A9170008764A934213D02CE05D
:10178C003B68DB683B6229E03B68DB6804333B6207
:10179C0024E03B68DB6808333B621FE03B68DB6896
:1017AC000C333B621AE03B689B68002B02D104238C
:1017BC003B6213E03B689B68012B05D108233B621D
:1017CC007B68FA691A6109E008233B627B68FA6955
:1017DC005A6103E000233B6200E000BFBB69FF2BB2
:1017EC0001D87B6801E07B6804337B61BB69FF2B0C
:1017FC0002D87B6A9B0002E07B6A083B9B003B6142
:10180C007B691A680F213B6901FA03F3DB431A4029
:10181C00396A3B6901FA03F31A437B691A603B6826
:10182C005B6803F08053002B00F0A9804A4B9B6946
:10183C00494A43F001039361474B9B6903F0010351
:10184C00BB60BB68454A7B6A9B08023352F8233065
:10185C00FB607B6A03F003039B000F2202FA03F385
:10186C00DB43FA681340FB607B683D4A93420DD022
:10187C007B683C4A934207D07B683B4A934201D138
:10188C00022304E0032302E0012300E000237A6A30
:10189C0002F0030292009340FA681343FB602F4955
:1018AC007B6A9B080233FA6841F823203B685B682B
:1018BC0003F48013002B06D02C4B9A682B49BB6980
:1018CC0013438B6006E0294B9A68BB69DB432749BD
:1018DC0013408B603B685B6803F40013002B06D04D
:1018EC00224BDA682149BB691343CB6006E01F4BDE
:1018FC00DA68BB69DB431D491340CB603B685B680E
:10190C0003F40033002B06D0184B5A681749BB69F7
:10191C0013434B6006E0154B5A68BB69DB43134914
:10192C0013404B603B685B6803F48033002B1FD083
:10193C000E4B1A680D49BB6913430B601FE000BFC7
:10194C0000003210000031100000221000002110A5
:10195C0000001210000011100010024000000140A5
:10196C0000080140000C014000100140000401403F
:10197C000B4B1A68BB69DB43094913400B607B6A4C
:10198C0001337B623B681A687B6A22FA03F3002BF3
:10199C007FF496AE00BF00BF2C37BD4680BC7047AD
:1019AC000004014080B483B000AF78600B467B80AC
:1019BC0013467B707B78002B03D07A887B681A6186
:1019CC0003E07B881A047B681A6100BF0C37BD46A4
:1019DC0080BC704780B584B000AF78607B68002B0A
:1019EC0001D101232BE17B6893F83D30DBB2002B56
:1019FC0006D17B68002283F83C207868FFF75AFBFD
:101A0C007B68242283F83D207B681B681A687B68FE
:101A1C001B6822F001021A607B681B681A687B68DD
:101A2C001B6842F400421A607B681B681A687B686A
:101A3C001B6822F400421A6000F0DAFCF8607B6844
:101A4C005B68814A934207D8FB68804A934294BFF3
:101A5C0001230023DBB206E0FB687D4A934294BF6E
:101A6C0001230023DBB2002B01D00123E7E0FB684C
:101A7C00784AA2FB03239B0CBB607B681B685B68EA
:101A8C0023F03F017B681B68BA680A435A607B6885
:101A9C001B681B6A23F03F017B685B686A4A9342B0
:101AAC0002D8BB68013309E0BB684FF4967202FBA5
:101ABC0003F3694AA2FB03239B0901337A6812687A
:101ACC000B4313627B681B68DB6923F44F4222F0E3
:101ADC00FF027B685B685C498B4219D8FB68591E16
:101AEC007B685B685B00B1FBF3F3591C40F6FC733D
:101AFC000B40002B0AD0FB68591E7B685B685B00AF
:101B0C00B1FBF3F30133C3F30B0351E004234FE0B8
:101B1C007B689B68002B11D1FB68581E7B68596849
:101B2C000B465B000B44B0FBF3F30133C3F30B0325
:101B3C00002B0CBF01230023DBB212E0FB68581E04
:101B4C007B6859680B469B000B4499000B44B0FB17
:101B5C00F3F30133C3F30B03002B0CBF012300235E
:101B6C00DBB2002B01D0012322E07B689B68002BA9
:101B7C000ED1FB68581E7B6859680B465B000B4402
:101B8C00B0FBF3F30133C3F30B0343F400430FE057
:101B9C00FB68581E7B6859680B469B000B449900E8
:101BAC000B44B0FBF3F30133C3F30B0343F4404397
:101BBC00796809681343CB617B681B681B6823F049
:101BCC00C0017B68DA697B681B6A1A437B681B68F7
:101BDC000A431A607B681B689B6823F4034323F059
:101BEC00FF037A6811697A68D26811437A681268BF
:101BFC000B4393607B681B68DB6823F0FF017B68F9
:101C0C005A697B689B691A437B681B680A43DA60D4
:101C1C007B681B681A687B681B6842F001021A60BB
:101C2C007B6800221A647B68202283F83D207B6845
:101C3C0000221A637B68002283F83E20002318469A
:101C4C001037BD4680BD00BFA08601007F841E00FA
:101C5C00FF083D0083DE1B43D34D621080B586B078
:101C6C0000AF78607B68002B01D1012372E27B68A6
:101C7C001B6803F00103002B00F08780924B5B681C
:101C8C0003F00C03042B0CD08F4B5B6803F00C039C
:101C9C00082B12D18C4B5B6803F48033B3F5803F77
:101CAC000BD1894B1B6803F40033002B6CD07B6881
:101CBC005B68002B68D101234CE27B685B68B3F551
:101CCC00803F06D1804B1B687F4A43F480331360FE
:101CDC002EE07B685B68002B0CD17B4B1B687A4A2F
:101CEC0023F480331360784B1B68774A23F48023EA
:101CFC0013601DE07B685B68B3F5A02F0CD1724BB1
:101D0C001B68714A43F4802313606F4B1B686E4A47
:101D1C0043F4803313600BE06B4B1B686A4A23F46B
:101D2C0080331360684B1B68674A23F4802313606D
:101D3C007B685B68002B13D0FFF7A6FB386108E0CB
:101D4C00FFF7A2FB02463B69D31A642B01D903238C
:101D5C0000E25D4B1B6803F40033002BF0D014E061
:101D6C00FFF792FB386108E0FFF78EFB02463B69F8
:101D7C00D31A642B01D90323ECE1534B1B6803F4F6
:101D8C000033002BF0D100E000BF7B681B6803F030
:101D9C000203002B63D04C4B5B6803F00C03002B4D
:101DAC000BD0494B5B6803F00C03082B1CD1464B42
:101DBC005B6803F48033002B16D1434B1B6803F094
:101DCC000203002B05D07B681B69012B01D001237A
:101DDC00C0E13D4B1B6823F0F8027B685B69DB00BC
:101DEC00394913430B603AE07B681B69002B20D008
:101DFC00364B01221A60FFF747FB386108E0FFF70A
:101E0C0043FB02463B69D31A022B01D90323A1E100
:101E1C002D4B1B6803F00203002BF0D02A4B1B68E0
:101E2C0023F0F8027B685B69DB00274913430B60E6
:101E3C0015E0264B00221A60FFF726FB386108E0FC
:101E4C00FFF722FB02463B69D31A022B01D903236D
:101E5C0080E11D4B1B6803F00203002BF0D17B6863
:101E6C001B6803F00803002B3AD07B689B69002B9E
:101E7C0019D0174B01221A60FFF706FB386108E0F6
:101E8C00FFF702FB02463B69D31A022B01D903234D
:101E9C0060E10D4B5B6A03F00203002BF0D00120D4
:101EAC0000F0CEFA1CE00A4B00221A60FFF7ECFAA5
:101EBC0038610FE0FFF7E8FA02463B69D31A022BB0
:101ECC0008D9032346E100BF001002400000424243
:101EDC0080044242924B5B6A03F00203002BE9D16F
:101EEC007B681B6803F00403002B00F0A680002322
:101EFC00FB758B4BDB6903F08053002B0DD1884BAA
:101F0C00DB69874A43F08053D361854BDB6903F06F
:101F1C008053BB60BB680123FB75824B1B6803F4C9
:101F2C008073002B18D17F4B1B687E4A43F480735F
:101F3C001360FFF7A9FA386108E0FFF7A5FA02462B
:101F4C003B69D31A642B01D9032303E1754B1B683E
:101F5C0003F48073002BF0D07B68DB68012B06D177
:101F6C006F4B1B6A6E4A43F0010313622DE07B68D2
:101F7C00DB68002B0CD16A4B1B6A694A23F0010306
:101F8C001362674B1B6A664A23F0040313621CE05E
:101F9C007B68DB68052B0CD1614B1B6A604A43F0F4
:101FAC00040313625E4B1B6A5D4A43F00103136228
:101FBC000BE05B4B1B6A5A4A23F001031362584B2C
:101FCC001B6A574A23F0040313627B68DB68002BFF
:101FDC0015D0FFF759FA38610AE0FFF755FA0246B7
:101FEC003B69D31A41F28832934201D90323B1E001
:101FFC004B4B1B6A03F00203002BEED014E0FFF7EF
:10200C0043FA38610AE0FFF73FFA02463B69D31AFC
:10201C0041F28832934201D903239BE0404B1B6A67
:10202C0003F00203002BEED1FB7D012B05D13C4BC1
:10203C00DB693B4A23F08053D3617B68DB69002B5F
:10204C0000F08780364B5B6803F00C03082B61D0E3
:10205C007B68DB69022B46D1334B00221A60FFF7F9
:10206C0013FA386108E0FFF70FFA02463B69D31AFE
:10207C00022B01D903236DE0294B1B6803F000737D
:10208C00002BF0D17B681B6AB3F5803F08D1244B41
:10209C005B6823F400327B689B68214913434B60D7
:1020AC001F4B5B6823F474127B68196A7B685B6A4C
:1020BC000B431B4913434B601B4B01221A60FFF768
:1020CC00E3F9386108E0FFF7DFF902463B69D31A00
:1020DC00022B01D903233DE0114B1B6803F0007365
:1020EC00002BF0D035E0104B00221A60FFF7CCF932
:1020FC00386108E0FFF7C8F902463B69D31A022B96
:10210C0001D9032326E0064B1B6803F00073002B58
:10211C00F0D11EE07B68DB69012B07D1012319E0AC
:10212C000010024000700040600042420B4B5B68A4
:10213C00FB60FB6803F480327B681B6A9A4206D111
:10214C00FB6803F470127B685B6A9A4201D001232E
:10215C0000E0002318461837BD4680BD0010024031
:10216C0080B584B000AF786039607B68002B01D1FA
:10217C000123D0E06A4B1B6803F007033A689A42CC
:10218C0010D9674B1B6823F0070265493B68134362
:10219C000B60634B1B6803F007033A689A4201D04B
:1021AC000123B8E07B681B6803F00203002B20D0EE
:1021BC007B681B6803F00403002B05D0594B5B684C
:1021CC00584A43F4E06353607B681B6803F00803D0
:1021DC00002B05D0534B5B68524A43F46053536059
:1021EC00504B5B6823F0F0027B689B684D491343AE
:1021FC004B607B681B6803F00103002B40D07B68AD
:10220C005B68012B07D1474B1B6803F40033002B91
:10221C0015D101237FE07B685B68022B07D1414B12
:10222C001B6803F00073002B09D1012373E03D4BB5
:10223C001B6803F00203002B01D101236BE0394B27
:10224C005B6823F003027B685B68364913434B6081
:10225C00FFF71AF9F8600AE0FFF716F90246FB6877
:10226C00D31A41F28832934201D9032353E02D4B08
:10227C005B6803F00C027B685B689B009A42EBD1B5
:10228C00274B1B6803F007033A689A4210D2244B81
:10229C001B6823F0070222493B6813430B60204B59
:1022AC001B6803F007033A689A4201D0012332E01D
:1022BC007B681B6803F00403002B08D0194B5B6888
:1022CC0023F4E0627B68DB68164913434B607B6840
:1022DC001B6803F00803002B09D0124B5B6823F436
:1022EC0060527B681B69DB000E4913434B6000F0A6
:1022FC0021F802460B4B5B681B0903F00F030A49DC
:10230C00CB5C22FA03F3094A1360094B1B6818468D
:10231C00FFF778F8002318461037BD4680BD00BF84
:10232C000020024000100240D034000814000020AD
:10233C001800002080B487B000AF0023FB6000239E
:10234C00BB6000237B6100237B6000233B611E4B41
:10235C005B68FB60FB6803F00C03042B02D0082BBA
:10236C0003D027E0194B3B6127E0FB689B0C03F083
:10237C000F03174AD35C7B60FB6803F48033002B9C
:10238C0010D0114B5B685B0C03F00103114AD35C5A
:10239C00BB607B680D4A03FB02F2BB68B2FBF3F334
:1023AC007B6104E07B680C4A02FB03F37B617B6975
:1023BC003B6102E0054B3B6100BF3B6918461C3793
:1023CC00BD4680BC704700BF0010024000127A006E
:1023DC00E8340008F834000800093D0080B400AF70
:1023EC00024B1B681846BD4680BC70471400002089
:1023FC0080B500AFFFF7F2FF0246054B5B681B0A86
:10240C0003F007030349CB5C22FA03F3184680BDA3
:10241C0000100240E034000880B500AFFFF7DEFF8B
:10242C000246054B5B68DB0A03F007030349CB5CF0
:10243C0022FA03F3184680BD00100240E034000875
:10244C0080B485B000AF78600A4B1B680A4AA2FBC7
:10245C0003235B0A7A6802FB03F3FB6000BFFB6893
:10246C005A1EFA60002BF9D100BF00BF1437BD46CD
:10247C0080BC704714000020D34D621080B582B030
:10248C0000AF78607B68002B01D1012376E07B687C
:10249C005B6A002B08D17B685B68B3F5827F09D03F
:1024AC007B680022DA6105E07B6800221A617B6898
:1024BC0000225A617B6800229A627B6893F8513043
:1024CC00DBB2002B06D17B68002283F850207868A1
:1024DC00FEF730FE7B68022283F851207B681B6874
:1024EC001A687B681B6822F040021A607B685B6884
:1024FC0003F482727B689B6803F404431A437B6881
:10250C00DB6803F400631A437B681B6903F0020366
:10251C001A437B685B6903F001031A437B689B6970
:10252C0003F400731A437B68DB6903F038031A4326
:10253C007B681B6A03F0800342EA03017B689B6A99
:10254C0003F400527B681B680A431A607B689B6922
:10255C001A0C7B681B6802F004025A607B681B68CB
:10256C00DA697B681B6822F40062DA617B680022FE
:10257C005A657B68012283F85120002318460837DE
:10258C00BD4680BD80B582B000AF78607B68002B03
:10259C0001D1012342E07B6893F84130DBB2002B80
:1025AC0006D17B68002283F840207868FEF70CFE89
:1025BC007B68242283F841207B681B68DA687B687F
:1025CC001B6822F40052DA60786800F007FA7B6826
:1025DC001B681A697B681B6822F490421A617B683D
:1025EC001B685A697B681B6822F02A025A617B6857
:1025FC001B68DA687B681B6842F40052DA607B68FF
:10260C0000225A647B68202283F841207B682022B8
:10261C0083F842207B6800225A630023184608374F
:10262C00BD4680BD80B582B000AF78607B68002B62
:10263C0001D101234AE07B6893F84130DBB2002BD7
:10264C0006D17B68002283F840207868FEF7BCFD39
:10265C007B68242283F841207B681B68DA687B68DE
:10266C001B6822F40052DA60786800F0B7F97B68D6
:10267C001B681A697B681B6822F490421A617B689C
:10268C001B685A697B681B6822F022025A617B68BE
:10269C001B685A697B681B6842F008025A617B68A8
:1026AC001B68DA687B681B6842F40052DA607B684E
:1026BC0000225A647B68202283F841207B68202208
:1026CC0083F842207B6800225A630023184608379F
:1026DC00BD4680BD80B58AB002AFF860B9603B6082
:1026EC001346FB8000237B61FB6893F84130DBB21F
:1026FC00202B6DD1BB68002B02D0FB88002B01D1A5
:10270C00012366E0FB6800225A64FB68212283F8EF
:10271C004120FEF7B9FE7861FB68FA889A84FB6861
:10272C00FA88DA84FB689B68B3F5805F08D1FB6894
:10273C001B69002B04D10023FB61BB68BB6103E068
:10274C00BB68FB610023BB612AE03B6800937B699B
:10275C0000228021F86800F0D2F80346002B01D04B
:10276C00032336E0FB69002B0BD1BB691B881A468F
:10277C00FB681B68C2F308025A60BB690233BB6179
:10278C0007E0FB691A78FB681B685A60FB69013328
:10279C00FB61FB68DB8C9BB2013B9AB2FB68DA8471
:1027AC00FB68DB8C9BB2002BCFD13B6800937B6921
:1027BC0000224021F86800F0A2F80346002B01D05B
:1027CC00032306E0FB68202283F84120002300E06D
:1027DC00022318462037BD4680BD80B58AB002AFB3
:1027EC00F860B9603B601346FB8000237B61FB689B
:1027FC0093F84230DBB2202B7CD1BB68002B02D08B
:10280C00FB88002B01D1012375E0FB6800225A6480
:10281C00FB68222283F84220FB6800221A63FEF731
:10282C0033FE7861FB68FA889A85FB68FA88DA854A
:10283C00FB689B68B3F5805F08D1FB681B69002BB4
:10284C0004D10023FB61BB68BB6103E0BB68FB6187
:10285C000023BB6143E03B6800937B69002220218D
:10286C00F86800F04CF80346002B01D0032342E03B
:10287C00FB69002B0CD1FB681B685B689BB2C3F334
:10288C0008039AB2BB691A80BB690233BB611FE0B3
:10289C00FB689B68B3F5805F07D0FB689B68002BD7
:1028AC000AD1FB681B69002B06D1FB681B685B68AF
:1028BC00DAB2FB691A7008E0FB681B685B68DBB274
:1028CC0003F07F03DAB2FB691A70FB690133FB6119
:1028DC00FB68DB8D9BB2013B9AB2FB68DA85FB6827
:1028EC00DB8D9BB2002BB6D1FB68202283F84220F3
:1028FC00002300E0022318462037BD4680BD80B57A
:10290C0090B000AFF860B9603B601346FB7150E0CB
:10291C00BB6CB3F1FF3F4CD0BB6C002B07D0FEF768
:10292C00B3FD02463B68D31ABA6C9A4241D2FB689B
:10293C001B680C33BB62BB6A53E8003F7B627B6A4B
:10294C0023F4D073FB63FB681B680C33FA6B7A635C
:10295C003B63396B7A6B41E80023FB62FB6A002B0B
:10296C00E5D1FB681B6814337B617B6953E8003F3E
:10297C003B613B6923F00103BB63FB681B681433A9
:10298C00BA6B3A62FB61F9693A6A41E80023BB61B0
:10299C00BB69002BE5D1FB68202283F84120FB6842
:1029AC00202283F84220FB68002283F84020032376
:1029BC000FE0FB681B681A68BB681340BA689A4240
:1029CC000CBF01230023DBB21A46FB799A429FD03D
:1029DC00002318464037BD4680BD000080B584B04A
:1029EC0000AF78607B681B681B6923F440517B68DF
:1029FC00DA687B681B680A431A617B689A687B6893
:102A0C001B691A437B685B691343BB607B681B685B
:102A1C00DB6823F4B05323F00C037A681268B968AE
:102A2C000B43D3607B681B685B6923F440717B6844
:102A3C009A697B681B680A435A617B681B682C4A3D
:102A4C00934203D1FFF7E8FCF86002E0FFF7D0FCFB
:102A5C00F860FA6813469B0013449A001A447B688A
:102A6C005B689B00B2FBF3F3224AA2FB03235B09D6
:102A7C001901FA6813469B0013449A001A447B68A8
:102A8C005B689B00B2FBF3F21A4BA3FB02035B09DE
:102A9C00642000FB03F3D31A1B013233154AA2FB4B
:102AAC0003235B0903F0F0031944FA6813469B00F7
:102ABC0013449A001A447B685B689B00B2FBF3F2E8
:102ACC000C4BA3FB02035B09642000FB03F3D31A3A
:102ADC001B013233074AA2FB03235B0903F00F02ED
:102AEC007B681B680A449A6000BF1037BD4680BDE6
:102AFC00003801401F85EB510CB430B5174B0C1E40
:102B0C001D689DB008DA8B234FF0FF302B601DB091
:102B1C00BDE8304002B070474FF40273ADF814308A
:102B2C000CBF234604F1FF33049307934FF6FF7356
:102B3C0002900690ADF81630284621AB209A02A9D7
:102B4C00019300F093F9431CBCBF8B232B60002C2A
:102B5C00DDD00022029B1A70D9E700BF20000020B4
:102B6C0003460244934200D1704703F8011BF9E776
:102B7C00014B1868704700BF2000002070B500267C
:102B8C000C4D0D4C641BA410A64209D100F078FC2E
:102B9C0000260A4D0A4C641BA410A64205D170BD38
:102BAC0055F8043B98470136EEE755F8043B984737
:102BBC000136F2E73835000838350008383500089A
:102BCC003C3500087047704738B50546002940D0A1
:102BDC0051F8043C0C1F002BB8BFE41800F0DEF8D1
:102BEC001C4A136833B9636014602846BDE838404A
:102BFC0000F0DAB8A34208D9206821188B4201BF33
:102C0C0019685B6809182160EDE71A465B680BB11F
:102C1C00A342FAD911685018A0420BD12068014484
:102C2C00501883421160E0D118685B68084410604A
:102C3C005360DAE702D90C232B60D6E72068211801
:102C4C008B4201BF19685B6809182160636054608E
:102C5C00CBE738BD2C03002070B50F4E0C46316805
:102C6C00054611B900F0AAFB30602146284600F059
:102C7C00A5FB431C03D14FF0FF34204670BDC41C90
:102C8C0024F00304A042F8D0211A284600F096FB49
:102C9C000130F2D1EFE700BF280300202DE9F84303
:102CAC00CD1C25F0030508350C2D38BF0C25002D47
:102CBC00064601DBA94204D90C2333600020BDE891
:102CCC00F883DFF8D48000F069F8D8F800301C469F
:102CDC0044BB29463046FFF7BFFF431C044658D17E
:102CEC00D8F800402746002F43D1002C4BD0236846
:102CFC003946304604EB030900F060FB814542D1B4
:102D0C00216830466D1A2946FFF7A6FF01303AD0EC
:102D1C0023682B442360D8F800305A6862BBC8F88B
:102D2C0000700FE02268521B20D40B2A17D96119AE
:102D3C00A342256018BF5960636808BFC8F800102B
:102D4C0062514B60304600F02FF804F10B00231D4C
:102D5C0020F00700C21A1CBF1B1AA350AFE7626811
:102D6C00A3420CBFC8F800205A60EBE72346646806
:102D7C00AEE73C467F68B6E71A465B68A342FBD1D8
:102D8C0000235360DEE70C233046336000F00CF870
:102D9C0094E70560D6E700BF2C0300200148FFF73D
:102DAC0011BF00BF240300200148FFF70CBF00BF78
:102DBC00240300202DE9F0471F468E688246BE4250
:102DCC000C4690460B682DD8B1F90C2012F4906F7C
:102DDC0026D06569096905EB4505A3EB010905EBEF
:102DEC00D5757B1C4B446D109D4238BF1D46530559
:102DFC0027D52946FFF752FF064660B34A4621699C
:102E0C0000F0FAFAA38923F4906343F08003A381C2
:102E1C0026614E4426603E466561A5EB0905A5601A
:102E2C00BE4200D93E4632464146206800F0ACFA1C
:102E3C000020A3689B1BA360236833442360BDE878
:102E4C00F0872A4600F0E6FA06460028E0D1504604
:102E5C002169FFF7B9FE0C23CAF80030A3894FF0A3
:102E6C00FF3043F04003A381E9E700002DE9F04F68
:102E7C0098468B8907461B060D4614469DB010D507
:102E8C000B6973B94021FFF709FF2860286130B93D
:102E9C000C233B604FF0FF301DB0BDE8F08F40239A
:102EAC006B610023099320238DF8293030234FF0D8
:102EBC000109CDF80C80DFF898818DF82A30234673
:102ECC009A4613F8012B0AB1252AF9D1BAEB040B57
:102EDC000BD05B46224629463846FFF76BFF013084
:102EEC0000F0A780099A5A4409929AF80030002BF6
:102EFC0000F09F8000234FF0FF32CDE905230AF14B
:102F0C00010A049307938DF853301A935446052203
:102F1C0014F8011B4E4800F061FA049AD8B9D00697
:102F2C0044BF20238DF85330110744BF2B238DF859
:102F3C0053309AF800302A2B15D0544600204FF00D
:102F4C000A0C079A214611F8013B303B092B4BD94F
:102F5C00B0B1079214E0A0EB080309FA03F3134392
:102F6C00A2460493D2E7039B191D1B680391002B07
:102F7C00BBBF5B4242F0020207930793B8BF0492B7
:102F8C0023782E2B0AD163782A2B32D1039B02345F
:102F9C001A1D1B68039243EAE3730593DFF8B4A090
:102FAC0003225046217800F019FA38B14022049BD4
:102FBC00A0EB0A00824013430134049314F8011B64
:102FCC00062225488DF8281000F008FA002836D083
:102FDC00224B1BBB039B073323F0070308330393DC
:102FEC00099B334409936AE70C4601200CFB02321F
:102FFC00A8E700234FF00A0C19460134059320462C
:10300C0010F8012B303A092A03D9002BC6D00591B0
:10301C00C4E7044601230CFB0121F0E703AB00934A
:10302C002A4638460E4B04A9AFF30080421C0646D4
:10303C00D6D1AB895B063FF52DAF09982CE703ABD6
:10304C0000932A463846064B04A900F07DF8EDE7BC
:10305C00FA340008003500080435000800000000B0
:10306C00C12D00082DE9F047164698468A680B6971
:10307C0007469342B8BF1346336091F843200C4681
:10308C00DDF820900AB1013333602368990642BF02
:10309C00336802333360256815F0060506D104F158
:1030AC00190AE36832689B1AAB422BDC94F8433064
:1030BC002268003B18BF0123920630D441463846A3
:1030CC0004F14302C847013023D02368226903F07E
:1030DC000603042B14BF002533684FF0000608BF0D
:1030EC00E56804F11A0408BFED1A54F8123C08BF45
:1030FC0025EAE5759342C4BF9B1AED18B5421AD167
:10310C00002008E00123524641463846C8470130AA
:10311C0003D14FF0FF30BDE8F0870135C1E7302017
:10312C00E11881F843005A1C94F8451022440233EC
:10313C0082F84310C2E70123224641463846C8476D
:10314C000130E6D00136D9E72DE9FF470F7E9146D5
:10315C00782F80460C469A460C9E01F1430207D804
:10316C00622F0AD8002F00F0D380582F00F0BA80BD
:10317C0004F1420684F842703AE0A7F16303152B80
:10318C00F6D801A151F823F0ED3100080132000806
:10319C007D3100087D3100087D3100087D3100084B
:1031AC00013200087D3100087D3100087D310008B6
:1031BC007D310008033300082B320008BD320008B3
:1031CC007D3100087D310008253300087D31000871
:1031DC002B3200087D3100087D310008C532000813
:1031EC0033681A1D1B68326004F1420684F84230C1
:1031FC0001239EE033682068191D3160060601D555
:10320C001D6803E04506FBD5B3F90050002D03DA29
:10321C002D236D4284F843300A23594811E021686C
:10322C003368080653F8045B02D4490648BFADB2B4
:10323C006F2F336014BF0A2308235148002184F8F0
:10324C0043106668002EA8BF2168A660A4BF21F0B9
:10325C00040121600DB9002E4BD01646B5FBF3F1DD
:10326C0003FB1157C75D06F8017D2F46BB420D4687
:10327C00F4D9082B0BD12368DF0708D523696168C3
:10328C009942DEBF302306F8013C06F1FF36921B53
:10329C0022614B4621464046CDF800A003AAFFF719
:1032AC00E1FE01304AD14FF0FF3004B0BDE8F087A9
:1032BC00236843F0200323607827324884F8457054
:1032CC00236831681F0651F8045B02D45F0648BFBF
:1032DC00ADB23160D90744BF43F0200323601DB168
:1032EC001023ABE72648E9E7236823F0200323608B
:1032FC00F6E71646BDE733682568181D616930602E
:10330C002E061B6801D5196002E06806FBD51980F2
:10331C00002316462361BCE7336800211A1D326076
:10332C001E686268304600F059F808B1801B606076
:10333C0063682361002384F84330AAE73246494688
:10334C0040462369D0470130ADD023689B0713D486
:10335C00E068039B9842B8BF1846A6E701233246A3
:10336C0049464046D04701309DD00135E36803996A
:10337C005B1AAB42F2DCEBE7002504F11906F5E72A
:10338C000B3500081C350008884210B501EB02040F
:10339C0002D98442234607D8431EA14208D011F813
:1033AC00012B03F8012FF8E7014602448A4200D1B1
:1033BC0010BD13F8014D02F8014DF7E738B50023A5
:1033CC00054D044608462B60FDF7A4FF431C02D1B3
:1033DC002B6803B1236038BD20030020034610B5D1
:1033EC00C9B202449342184601D1002003E004788C
:1033FC0001338C42F6D110BD0A44914200F1FF33E7
:10340C0000D1704710B511F8014B914203F8014FF0
:10341C00F9D110BD2DE9F041804615460C4621B975
:10342C001146BDE8F041FFF739BC2AB9FFF7CCFBD8
:10343C0000242046BDE8F08100F01AF885420646CB
:10344C0002D8B5EB500FF4D829464046FFF726FCBE
:10345C0007460028ECD0B5422A46214628BF324602
:10346C00FFF7CAFF21464046FFF7AEFB3C46E0E7BC
:10347C0051F8043C181F002BBCBF0B58C0187047E8
:10348C00F8B500BFF8BC08BC9E467047F8B500BF45
:08349C00F8BC08BC9E46704715
:1034A4000000000054656D70657261747572653A50
:1034B4002025640D0A000000436F6D697461732058
:1034C400416B6164656D79610D0A000000000000C4
:1034D40000000000010203040607080900000000C0
:1034E4000102030402030405060708090A0B0C0D74
:1034F4000E0F10100102232D302B2000686C4C009D
:1035040065666745464700303132333435363738DF
:10351400394142434445460030313233343536373D
:0C352400383961626364656600000000D5
:083530001CCCFF7F010000002C
:043538003101000855
:04353C000D01000875
:1035400033080000CC000000BE0900004E0003005C
:10355000440000000024F4001000000001000000FE
:103560002400002000000000E8010020500200209C
:10357000B802002000000000000000000000000071
:10358000000000000000000000000000000000003B
:10359000000000000000000000000000000000002B
:1035A000000000000000000000000000000000001B
:040000050800139943
:00000001FF
